:020000040800F2
:10000000301B002001010008DF1600084F16000811
:10001000DD160008E7010008493000080000000074
:10002000000000000000000000000000651A000849
:10003000CF02000800000000631A0008671A0008D9
:100040001B0100081B0100081B0100081B01000820
:100050001B0100081B0100081B0100081B01000810
:100060001B0100081B0100081B0100081B01000800
:100070001B0100081B0100088D02000899020008FE
:100080001B0100081B0100081B0100081B010008E0
:10009000E12F00081B0100081B0100081B010008DC
:1000A0001B0100081B0100081B0100081B010008C0
:1000B0001B0100081B0100081B0100081B010008B0
:1000C0001B0100081B0100081B0100081B010008A0
:1000D0001B010008891E00081B0100081B01000805
:1000E0001B0100081B0100081B010008DFF80CD0F1
:1000F00000F03CF800480047BD320008301B0020EB
:100100000648804706480047FEE7FEE7FEE7FEE7B1
:10011000FEE7FEE7FEE7FEE7FEE7FEE7CD1A000892
:10012000ED00000840EA01039B0703D009E008C97D
:10013000121F08C0042AFAD203E011F8013B00F8AC
:10014000013B521EF9D27047D2B201E000F8012BF8
:10015000491EFBD270470022F6E710B513460A4647
:1001600004461946FFF7F0FF204610BD064C074D28
:1001700006E0E06840F0010394E807009847103477
:10018000AC42F6D3FFF7B6FF8C3A0008AC3A000851
:1001900070B58C1810F8015B15F0070301D110F849
:1001A000013B2A1106D110F8012B03E010F8016B76
:1001B00001F8016B5B1EF9D12B0705D40023521EF9
:1001C0000DD401F8013BFAE710F8013BCB1A921C61
:1001D00003E013F8015B01F8015B521EF9D5A1425F
:1001E000D8D3002070BDFEE7042806DD202804D106
:1001F000034802680A6040684860002070470000B9
:100200006C3300080020704710B5002204490548EF
:1002100001F022FF0449034801F018FF002010BD3F
:100220008C0C002080040020A408002010B501469A
:10023000034801F00BFF024801F0ECFE002010BD66
:100240008004002030B5034600200246064D08E039
:100250009C5C521C84EA102435F8144084EA002087
:1002600080B28A42F4DB30BD8C34000830B50346DE
:1002700000200246044D03E09C5C6040521C285C58
:100280008A42F9DB30BD00008C330008014800F0E1
:100290006DB800003C040020014800F067B8000081
:1002A000F803002030B590F840500124AC40C56BF5
:1002B0006C60046863604368102B036803D0996026
:1002C0000068C26030BD9A600068C16030BD704790
:1002D0007047000010B590F821100024022903D0C7
:1002E0000421816301243DE001680A6822F00E02C6
:1002F0000A6001680A6822F001020A601A4A01686D
:10030000914201D1012121E0174A1432914201D1D9
:1003100010211BE0144A2832914201D1891515E0C1
:10032000114A3C32914201D189140FE00E4A5032F9
:10033000914202D14FF4803108E00B4A643291427D
:1003400002D14FF4801101E04FF08071064A083A63
:100350005160012180F82110002180F82010416BAC
:1003600001B18847204610BD080002402DE9F05F2A
:10037000C16B0C6801680B68D0F840C0042202FA17
:100380000CF2494DDFF824A1494E4A4FDFF828B15D
:10039000DFF828E122422CD05A072AD50A689206B3
:1003A00003D40A6822F004020A600168A94201D15C
:1003B000042219E0514501D1402215E0B14202D199
:1003C0004FF4806210E0B94202D14FF480420BE05A
:1003D000594502D14FF4802206E0714502D14FF415
:1003E000800201E04FF080622F4908394A60C16AFB
:1003F0003BE04FF0020808FA0CF818EA040F4FF03F
:1004000000094FF0010235D05FEA837832D50B68DE
:100410009B0605D40B6823F00A030B6080F82120AB
:100420000168A94201D1022219E0514501D12022DF
:1004300015E0B14202D14FF4007210E0B94202D18E
:100440004FF400520BE0594502D14FF4003206E060
:10045000714502D14FF4001201E04FF000721249D1
:1004600008394A6080F82090816A00291AD0BDE8D6
:10047000F05F0847082505FA0CF5254212D01B0746
:1004800010D50B6823F00E030B6090F84010C36B7F
:1004900002FA01F15960826380F8212080F82090EF
:1004A000016BE2E7BDE8F09F080002401C0002403B
:1004B0003000024044000240580002406C000240FC
:1004C00030B528B308C8134914221944B1FBF2F11E
:1004D0008900C16310498163022141771A6843F69C
:1004E000F0718A43D0E900142143D0E902452C433E
:1004F0002143046921434469214384692143114311
:10050000196000214163012242770177084630BD1E
:10051000012030BDF8FFFDBF0000024070B5044669
:1005200090F82000002501280CD0012084F820003C
:1005300094F821600020012E06D084F820000225C6
:10054000284670BD022070BD022684F82160A06399
:100550002068066826F0010606602046FFF7A2FE26
:10056000E06A00282068016802D041F00E0106E030
:1005700021F0040101602068016841F00A01016076
:100580002068016841F001010160D9E72DE9F84FC9
:10059000DFF890A100220AF1040B144601274FF066
:1005A0000F090BF1040E00BF0B6807FA04F52B408E
:1005B000AB4274D1DFF870C14E68A6EB0C086645FB
:1005C0002BD00DDC032E34D005DC36B3012E19D030
:1005D000022E2FD11BE0112E16D0122E2AD119E097
:1005E000B8F5881F19D006DCB8F5803F15D0B8F5EE
:1005F000801F1FD111E0B8F5001F0ED0B8F5041F01
:1006000018D10AE0CA6815E0CA68121D12E0CA686B
:1006100008320FE0CA680C320CE08A682AB1012A5D
:100620004FF0080203D0456104E0042202E00561B6
:1006300000E00022FF2B01D8064601E000F104068D
:100640004FEA840501D9A5F12005D6F800C009FAC2
:1006500005F82CEA080C02FA05F54CEA050CC6F878
:1006600000C04D68ED0057D5304DAE6946F001062B
:10067000AE61AD6924F0030605F0010500952C4D2F
:1006800006EB050CDCF80850A6074FEA167809FAC5
:1006900008F6B543274EB04202D1002610E03BE0F9
:1006A000254EB04201D101260AE0244EB04201D1CC
:1006B000022605E0224EB04201D1032600E00426C6
:1006C00006FA08F62E43CCF808604D68DAF80060A8
:1006D000ED03554601D51E4300E09E432E604D6854
:1006E000DBF80060AD035D4601D51E4300E09E438C
:1006F0002E604D68DEF80060ED02754601D51E43A0
:1007000000E09E432E604D68AD020E4D2E6801D56F
:100710001E4300E09E432E60641C102CFFF444AF87
:10072000BDE8F88F000401400000111000100240E5
:100730000000014000080140000C01400010014091
:10074000001401400C04014001488068704700001B
:10075000600000200248816802781144816070477F
:1007600060000020074810B5016841F010010160E9
:10077000032000F073F8002000F006F800F024F8E1
:10078000002010BD0020024070B50D4D04464FF40E
:100790007A712878B1FBF0F00A490968B1FBF0F0F2
:1007A00000F0C8FD48B9102C07D200222146501E87
:1007B00000F034F800206C6070BD012070BD0000B6
:1007C000600000206C0000200C4808B5816941F0F1
:1007D00001018161816901F001010091C16941F06C
:1007E0008051C161C06900F08050009004484168A8
:1007F00021F0E06141F00071416008BD001002404D
:100800000000014000F01F020121914040098000DA
:1008100000F1E020C0F8001170470000F0B40E4B6A
:100820001B680C46C3F30223C3F10705042D00D94E
:100830000425191D072901D2002300E0DB1E012633
:1008400006FA05F1491E214099409E40761E164049
:100850003143F0BC00F044BF0CED00E0064900F06D
:10086000070208684FF6FF03184040EA0220034AD7
:1008700010430860704700000CED00E00000FA052E
:1008800010B50C0605D501F07F0100EB41102830B2
:1008900003E000EB411000F50A7099B232B1012279
:1008A0008272C180190C0181002010BD0022827269
:1008B0008180F9E7704700EB4112D0F85C04D26BFD
:1008C00001F08EBD00EB4112D0F85C04D2F83C225E
:1008D00001F0DBBD10B504460A460B0601F07F00AF
:1008E00004EB401101D5283101E001F50A710870CF
:1008F000D009487094F82804012809D0012084F810
:100900002804206802F088F9002084F8280410BD2B
:10091000022010BD70B50A460446090602F07F00A9
:1009200003D504EB4011283103E004EB421101F53B
:100930000A7100258D700870D009487094F8280459
:10094000012809D0012084F82804206802F012FA56
:1009500084F82854002070BD022070BD01F00F0102
:1009600000EB4110B0F8440280B2704770B5044605
:100970000D460E0601F07F0004EB401101D5283131
:1009800001E001F50A710870E80948700A61CB704E
:1009900094F82804012809D0012084F8280420684C
:1009A00002F00AF8002084F8280470BD022070BD0F
:1009B00070B50C4601F07F0500EB4511C1E98F23AE
:1009C0000022C1F8442281F8292281F8285201F539
:1009D0000A716206006802F027FA002070BD70B547
:1009E0000D460446090605F07F0003D504EB4011CF
:1009F000283103E004EB451101F50A7101228A70E8
:100A00000870E809487094F82804012807D084F891
:100A10002824206802F0E3F9680602D006E00220EC
:100A200070BD04F22C41206802F0A2F9002084F885
:100A3000280470BD70B50C4601F07F0500EB451130
:100A4000C1E90F2300224A64012281F8292001F81C
:100A5000285F6206006802F0E7F9002070BD10B55B
:100A60000446006802F0C2FA000402D5204600F0F5
:100A700047FE206802F0BAFA40050CD5206830F82D
:100A8000441F21F480610180204600F0EDF8002130
:100A9000204600F004F9206802F0A8FA400405D5C9
:100AA000206830F8441F21F480410180206802F062
:100AB0009DFA800405D5206830F8441F21F40051C8
:100AC0000180206802F092FAC00414D5206830F842
:100AD000401F21F004010180206830F8401F21F000
:100AE00008010180204600F0D2F8206830F8441F49
:100AF00021F480510180206802F078FA00051AD5AF
:100B0000206830F8401F41F008010180206830F86B
:100B1000441F21F400610180206830F8401F41F03B
:100B200004010180206802F061FAC043C00402D5CC
:100B3000204600F0E9F8206802F058FA800508D550
:100B4000206830F8441F21F400710180204600F035
:100B5000A2F8206802F04AFAC00505D5206830F8EE
:100B6000441F21F48071018010BD00002DE9F04187
:100B700086B004004FF0000504D094F82904002644
:100B800020B108E0012006B0BDE8F08184F82864B7
:100B9000204600F04BF8032084F82904206802F076
:100BA000E0F804F11001142288466846FFF7BAFA0B
:100BB00094E80F0002F02EF80021206802F029FAD4
:100BC0005FF0010704EB451080F8297000F8285FFA
:100BD0008581C670066146616D1C86610F2DF1D35B
:100BE0005FF0000004EB401181F8296281F82802CF
:100BF000888681F82B62C1F83862C1F83C62401CDB
:100C0000C1F840620F28EDD3142241466846FFF731
:100C100089FA94E80F0002F095F884F8246084F8CB
:100C20002974206802F08CF80020ACE708B5006851
:100C30000B49884212D10B48C16941F40001C161DE
:100C4000C069002200F40000009011461420FFF754
:100C5000E5FDBDE808401420FFF7D4BD08BD000045
:100C6000005C00400010024070B504468068012519
:100C7000022801D0FFF72CFB2946D4F85C0401F0D0
:100C8000D1FCD4F85C04BDE8704001F09ABCD0F807
:100C90005C0401F0B5BCD0F85C0401F0B7BC10B541
:100CA000044690F8280401280BD0012084F8280479
:100CB00084F82410206802F0AEF9002084F828049B
:100CC00010BD022010BDD0F85C2400F22C4110466B
:100CD00001F0B4BC10B5044690F82804012810D0E7
:100CE000012084F8280401462046FFF7E3FD206830
:100CF00002F024F8206802F06CF9002084F828043F
:100D000010BD022010BD000010B50446D0F85C04F0
:100D100001F0D3FCA069002804D00348016841F029
:100D20000601016010BD000010ED00E02DE9F84360
:100D300005460078354CC00754D0E0690026C00055
:100D400008D4E06940F08050E061E069012600F0DD
:100D5000805000902E480168C90512D40168804671
:100D600041F480710160FFF7EFFC074605E000BF2A
:100D7000FFF7EAFCC01B642823D8D8F80000C005A0
:100D8000F6D5206A10F4407021D0A98801F4407192
:100D900081421CD0206A1F49012220F440700A6061
:100DA00000220A602062C00711D0FFF7CDFC074681
:100DB00041F2883808E000BFFFF7C6FCC11B41457F
:100DC00002D90320BDE8F883206A8007F4D5206AA1
:100DD000696820F44070084320621EB1E06920F089
:100DE0008050E0612878800705D56068A96820F404
:100DF0004040084360602878C00605D56068E9680F
:100E000020F48000084360600020DBE7001002400F
:100E100000700040400442422DE9F047DFF8548161
:100E200005460E46D8F8000000F00700B0420CD28C
:100E3000D8F8001021F007013143C8F80010D8F8A5
:100E4000000000F00700B0426FD128684A4C8107CB
:100E500012D5400703D5606840F4E06060602878F0
:100E6000000703D5606840F4605060606068A9685E
:100E700020F0F000084360602878C00744D068681C
:100E8000012816D02168022816D0890700294CDADB
:100E9000616821F0030101436160FFF755FC696857
:100EA000074641F2883001290ED00229814618D028
:100EB00026E021688903E9E78901E7E7FFF744FCB9
:100EC000C11B494501D918E081466068C0F3810023
:100ED0000128F3D118E000BFFFF736FCC11B4945DC
:100EE0000BD86068C0F381000228F5D10CE000BF88
:100EF000FFF72AFCC11B494502D90320BDE8F08752
:100F0000606810F00C0FF3D1D8F80010404601F0E3
:100F10000701B1420BD9016821F00701314301609B
:100F2000006800F00700B04201D00120E6E7287811
:100F3000400705D56068E96820F4E0600843606018
:100F40002878000706D56068296920F4605040EAD7
:100F5000C100606000F036F86168084AC1F303110F
:100F6000515CC840064908600020FFF70DFC0020D6
:100F7000C4E7000000200240001002407433000863
:100F80006C0000200448054900684968044AC1F320
:100F90000221515CC84070476C00002000100240E4
:100FA000843300080448054900684968044AC1F3CD
:100FB000C221515CC84070476C0000200010024004
:100FC0008433000812A185B00FC98DE80F0014A06A
:100FD000144A006804905168134801F00C03042B74
:100FE00010D0082B0ED1C1F38343C9031DF80300B1
:100FF0000AD5516804AAC1F34041515C0A4A5043E2
:10100000B0FBF1F005B0704708494843FAE700002B
:1010100002030405060708090A0B0C0D0E0F101039
:10102000010200000010024000127A0000093D0099
:101030002DE9F84F04460078B94DC00748D06868DC
:10104000C0F38100012807D06868C0F3810002283E
:1010500009D16868C00306D52868800338D5606860
:1010600000286FD034E06068B0F5803F0BD010B13D
:10107000B0F5A02F11D0286820F4803028602868AF
:1010800020F4802002E0286840F480302860606806
:1010900088B1FFF759FB064609E0286840F4802034
:1010A0002860F0E7FFF750FB801B642875D828689C
:1010B0008003F7D50CE0FFF747FB064605E000BFCD
:1010C000FFF742FB801B6428F0D828688003F7D420
:1010D0002078944E80074FF001094FF000083BD56F
:1010E000686810F00C0F07D06868C0F38100022810
:1010F00009D16868C00306D42868800714D5206920
:1011000001281FD110E02069B0B1C6F80090FFF7A8
:101110001BFB074605E000BFFFF716FBC01B0228BC
:10112000C4D828688007F7D52868616920F0F800DE
:1011300040EAC10028600FE0C6F80080FFF704FB1A
:10114000074606E0E9E000BFFFF7FEFAC01B0228F1
:1011500023D828688007F7D4207800072CD5724858
:10116000A169D9B1C0F80090FFF7EEFA074604E094
:10117000FFF7EAFAC01B02280FD8686A8007F7D584
:101180006A484FF4FA510068B0FBF1F0009000BFDC
:101190000098411E0091FAD20EE080E0C0F8008075
:1011A000FFF7D2FA074604E0FFF7CEFAC01B022889
:1011B00075D8686A8007F7D42078400760D5E86959
:1011C0000027C00008D4E86940F08050E861E86971
:1011D000012700F08050009055480168C90513D4DC
:1011E0000168834641F480710160FFF7ADFA8246E1
:1011F00006E000BFFFF7A8FAA0EB0A0064284ED86B
:10120000DBF80000C005F5D5E06801280AD008B178
:10121000052813D0286A20F001002862286A20F0EF
:10122000040002E0286A40F001002862E06841F210
:10123000883B98B1FFF788FA82460BE0286A40F0B5
:1012400004002862EEE700BFFFF77EFAA0EB0A0178
:1012500059455AD8286A8007F6D50CE0FFF774FA8A
:10126000824605E0FFF770FAA0EB0A0159454CD819
:10127000286A8007F6D41FB1E86920F08050E86141
:10128000E06988B36968C1F38101022945D0022869
:10129000C6F8608004D0FFF757FA044638E034E01F
:1012A000FFF752FA074604E0FFF74EFAC01B022888
:1012B0002BD828688001F7D4206AB0F5803F05D18B
:1012C0006868A16820F4003008436860D4E9080128
:1012D0000843696821F4741108436860C6F8609097
:1012E000FFF732FA044606E015E000BFFFF72CFADC
:1012F000001B022809D828688001F7D50BE000BF41
:10130000FFF722FA001B022802D90320BDE8F88F5C
:1013100028688001F4D40020F8E70120F6E70000F7
:101320000010024000004242800442426C00002053
:101330000070004010B5401EB0F1807F01D3012045
:1013400010BD4FF0E02460610F21601700F0C8F974
:101350000020A06107202061002010BD7047000020
:1013600070B5026804461068D168536910F00F0F19
:1013700050D003F0010501F4907635435DD0C207EB
:1013800005D0CA0503D5E26B42F00102E2634207D1
:1013900005D5DA0703D0E26B42F00202E26382076E
:1013A00005D5DA0703D0E26B42F00402E2630207DC
:1013B00005D5DA0703D0E26B42F00802E263E26B84
:1013C000002A33D0800604D5880602D5204600F0D6
:1013D00008FC20684069E16BC0F38010090700D465
:1013E00028B3204600F0E6FB2068416949061AD57B
:1013F000416921F040014161606BA0B11B4941632B
:10140000606BFEF767FF002810D0606B416BBDE892
:1014100070400847830610D58B060ED52046BDE8E0
:10142000704000F0DEBB2046FFF798FF70BD2046FD
:10143000FFF794FF0020E06370BD030606D50B069E
:1014400004D52046BDE8704000F0ECBC4006F3D562
:101450004806F1D5D168204621F04001D160202115
:1014600084F8391000F0F2F870BD0000151B000878
:1014700070B5040004D094F83900002510B106E0DE
:10148000012070BD84F83850204600F023F8242055
:1014900084F839002068C16821F40051C1602046F9
:1014A00000F008FC2068016921F490410161206886
:1014B000416921F02A0141612068C16841F400516D
:1014C000C160E563202084F8390084F83A000020E8
:1014D00070BD0000F0B585B000240646009401946C
:1014E0000294039400682C49884252D12B488169A8
:1014F00041F480418161816901F4804104918169F5
:1015000041F0040181618069254D00F004000490E0
:101510004FF4007000900220019003200390694670
:101520002846FFF733F82815CDE900046946284618
:101530000294FFF72BF81C4D1A488027C5E90004D8
:10154000C5E902472C616C61AC612846EC61FEF78D
:10155000B7FF08B1FEF7BCFE75636E621148134D0C
:10156000143801C5102091C5104845F810496C6128
:10157000AC61EC61FEF7A4FF08B1FEF7A9FE35638C
:101580000022114625206E62FFF748F92520FFF75B
:1015900039F905B0F0BD00000038014000100240EC
:1015A0000008014058000240F80300203C040020DD
:1015B000F8B5044690F83A0020283CD1C1B3BAB33C
:1015C00094F83800012836D0012084F83800A16250
:1015D000A2850025E563222084F83A00636B174852
:1015E0009862636B1648D862636B16481863606B29
:1015F000134645630846666B216802463046091D5E
:10160000FEF78CFF206801684168009184F838502B
:10161000C16841F48071C1602068416941F00101F5
:1016200041612068416941F0400141610020F8BDFD
:10163000FFE70120FBE70220F9E700006F1B00082D
:10164000AB1B0008251B0008704770477047FEE77A
:10165000F0B500230A24302537261F4611E000BFCD
:10166000B4EB107F02D905EB107C01E006EB107C97
:1016700001F813C001EB430C00015B1C8CF80170F6
:10168000DBB29342ECD3F0BD10B500220F491048F5
:1016900000F07FFE08B1FEF71BFE0E490C4801F07A
:1016A00032F808B1FEF714FE0B49094800F0C6FCF9
:1016B00008B1FEF70DFE064801F072F8002803D0CD
:1016C000BDE81040FEF704BE10BD00000000002081
:1016D000800400205001002050000020FEE77047E9
:1016E0000907090E002806DA00F00F0000F1E020DB
:1016F00080F8141D704700F1E02080F80014704756
:101700002DE9FC5F4FF000080446ADF80480ADF809
:10171000008048F60F7B4FF002094FF4806692E19B
:10172000BDF8041011F00F072BD030F82710ADF8DA
:101730000010BDF80010090478D530F8272040F6D5
:101740008F710A4020F8272004EB471595F83202E4
:1017500005F50A750028206869D0297830F821201D
:1017600052047DD5B0F8503009EBC101194406EBA5
:101770004101415AC1F309015FEA010A71D0EA88C7
:10178000D0E0BDF80410C9062AD4018801EA0B0193
:101790000180206804F12805B0F850202B7809EB6F
:1017A000C301114406EB4101405AC0F309006064D3
:1017B000E16B0844E06300212046FFF77CF894F8D1
:1017C00024000028ABD0A8690028A8D194F82400F0
:1017D000216840F08000A1F84C0084F8248032E1B8
:1017E000018804F50A75ADF80010BDF80010090570
:1017F0001ED5B0F850302978062202EBC1011944F9
:1018000006EB4101405A04F22C41C0F30903EB619D
:10181000AA88206801F0EEFB2068018840F68F72EC
:10182000114001802046FFF74EFA0CE1A0E055E0A0
:10183000BDF800100904D2D5028840F68F710A4025
:1018400002802068B0F850302978062202EBC101EE
:10185000194406EB4101405A83059B0DEB6101E001
:1018600051E063E008D0AA886969206801F0C2FBF2
:10187000E96968690844686100212046FFF722F899
:101880002068B0F85010891D06EB41010144286919
:101890003E280CD9C0F34F12C00601D1521E92B29D
:1018A0004FF6FF7000EA822040F4004009E0C0F3E8
:1018B0004F02C00701D0521C92B24FF6FF7000EAEF
:1018C00082200860216808884BF68F72104080F4EF
:1018D000405048F2800210430880B4E0B0F8502035
:1018E0002B78062101EBC301114406EB4101415A5B
:1018F000C1F309015FEA010A24D0AA885346696945
:1019000001F078FB1EE0B0F85020062303EBC10184
:10191000114406EB4101415AC1F309015FEA010A92
:1019200004D02A895346696901F064FB297820684C
:1019300030F8213048F68F72134048F2C00213434A
:1019400020F82130E96901EB0A00E861696901EBDF
:101950000A026A61AB6913B12869504504D9297834
:101960002046FEF7AFFF03E029782046FFF720F876
:10197000BDF80000000666D5206804EB471530F876
:10198000271001EA0B0120F8271095F832002835BE
:101990000028206812D0297830F82120B0F8503083
:1019A00052061ED509EBC101194406EB4101405A0C
:1019B00083059B0DEB6124D0EA881EE0B0F850301F
:1019C0002A7809EBC201194406EB4101405A83050C
:1019D0009B0DEB6121D0AA886969206801F021FB89
:1019E0001BE0062202EBC101194406EB4101405AFB
:1019F00083059B0DEB6104D02A896969206801F099
:101A000010FB2978206830F8212048F68F731A409F
:101A10004CF280031A4320F821202068B0F85020AF
:101A20002B7809EBC301114406EB4101405AC0F386
:101A30000900E86169690A186A612978AB6920467A
:101A400063B1FEF7F7FF2068B0F84410ADF804105A
:101A500009043FF565AE0020BDE8FC9FFEF72BFFB3
:101A6000F1E770477047FEF775BE30B593B0282197
:101A70006846FEF770FB14210AA8FEF76CFB0024F1
:101A800001200F9410941194010412948DE8130016
:101A900004904FF4E010CDE9081002250795684640
:101AA000FFF7C6FA0F20CDE90A056802CDE90C4020
:101AB00002210AA80E94FFF7AFF910200F9012949C
:101AC0000FA8FFF733F913B030BD00000D480168CF
:101AD00041F00101016041680B4A11404160016819
:101AE0000A4A11400160016821F4802101604168C7
:101AF00021F4FE0141604FF41F0181600449C003DD
:101B000008607047001002400000FFF8FFFFF6FE7B
:101B100008ED00E010B5406A0021C185C184FFF7DF
:101B20001DFC10BD70B5446A2068406994F83910F6
:101B3000C0F3C0100025212904D118B1E584204646
:101B400000F046F82068406994F83A10C0F380101D
:101B5000222904D118B1E585204600F02BF8E06B6E
:101B600040F01000E0632046FFF7F8FB70BD10B5B1
:101B70000146406A09680968890613D40021C185B5
:101B80000168CA6822F48072CA6001684A6922F05A
:101B900001024A6101684A6922F040024A6120213B
:101BA00080F83A10FFF750FD10BD10B5406AFFF7FE
:101BB0004CFD10BD0168CA6822F49072CA600168C9
:101BC0004A6922F001024A61202180F83A107047E8
:101BD0000168CA6822F0C002CA60202180F839106A
:101BE000704710B590F83A10222901D0022010BD9C
:101BF0008168B1F5805F11D00169002901681FD0AB
:101C0000496801F07F03816A4A1C82620B70C18DB2
:101C1000491E0904090CC18518D02BE00269816AAC
:101C2000002A0268526805D0D2B20A80816A491C33
:101C30008162ECE7C2F308020A80816A891CF7E737
:101C40004A68816A4B1C83620A70E0E70168CA68CF
:101C500022F02002CA600168CA6822F48072CA6059
:101C600001684A6922F001024A61202180F83A1095
:101C7000FFF7EAFC002010BD10B5044600680B49D0
:101C8000884211D1606B006840680949C0F58072D4
:101C9000A1F5987001F0F6F92046BDE810404FF428
:101CA00080720349FFF784BC10BD0000003801407A
:101CB000F80200202DE9F041044600680169E2685D
:101CC00021F44051114301612169A0680843616911
:101CD00008432168CA6841F20C639A430243CA6010
:101CE00020684169A26921F44071114341614C4966
:101CF00020686425322688423CD1FFF753F900EB77
:101D0000C00101EB001061688900B0FBF1F7FFF73B
:101D100049F900EBC00101EB00106168B046890091
:101D2000B0FBF1F0B0FBF5F06FF01801484307EBA2
:101D3000800106EB0110B0FBF5F000F0F006FFF7B4
:101D400031F900EBC00101EB001061688900B0FBC4
:101D5000F1F0B0FBF5F006EB0016FFF723F900EB0E
:101D6000C00101EB001061688900B0FBF1F7FFF7DB
:101D700019F93BE0FFF706F900EBC00101EB001099
:101D800061688900B0FBF1F7FFF7FCF800EBC001D8
:101D900001EB00106168B0468900B0FBF1F0B0FBC8
:101DA000F5F06FF01801484307EB800106EB0110D6
:101DB000B0FBF5F000F0F006FFF7E4F800EBC0012F
:101DC00001EB001061688900B0FBF1F0B0FBF5F0A9
:101DD00006EB0016FFF7D6F800EBC00101EB001090
:101DE00061688900B0FBF1F7FFF7CCF800EBC001A8
:101DF00001EB001061688900B0FBF1F0B0FBF5F079
:101E00006FF01801484307EB800108EB0110B0FBAD
:101E1000F5F0216800F00F0030448860BDE8F081E3
:101E20000038014090F83910212901D00220704774
:101E30008168B1F5805F016A0BD04A1C02620268BA
:101E400009785160C18C491E0904090CC1840ED067
:101E500017E009880268C1F308015160016900298F
:101E6000016A02D0491C0162ECE7891CFBE70168AA
:101E7000CA6822F08002CA600068C16841F040016F
:101E8000C16000207047000008B50A48FFF768FAF3
:101E9000084800680168C268C90609D5D10607D597
:101EA000016840680090BDE808400248FFF7E4BEC2
:101EB00008BD000088010020D0F8180220B10021E0
:101EC000C0F81412084670470220704770B50546E6
:101ED000D0F8184200F00EFBC4F80C02D5F8180236
:101EE00048B1D5F81C12D4F80402CA6804F503718D
:101EF0009047002070BD022070BD70B504460025DB
:101F0000812100F064FA0121204600F060FA82216C
:101F1000204600F05CFAD4F8180250B1D4F81C0244
:101F200004F5067440688047206800F03FFD0020FB
:101F30002060284670BD10B5D0E9864159B194F8AB
:101F40000002FF2807D08B6894F8012221469847A9
:101F5000FF2084F80002002010BD00000A2101804B
:101F600000487047780000204321018000487047F6
:101F7000C8000020432101800048704784000020F1
:101F800043210180004870470C0100202DE9F041F9
:101F90000446007C00254FF4007670B340230222F3
:101FA0008121204600F0F8FA402302220121204638
:101FB00000F0F2FA082303228221204600F0ECFA16
:101FC0004FF4077000F0F4FCC4F81802F0B10746B3
:101FD000D4F81C02006880470020C7F81402C7F834
:101FE0001802207CD7F8042290B14023012120461A
:101FF00000F0DEFA2846BDE8F081FFE73346022212
:102000008121204600F0C8FA3346CEE70125F1E7EA
:102010003346EBE710B5D0F8181269B1027C002AFC
:10202000D1F8042205D04023012100F0C1FA00209C
:1020300010BD4FF40073F7E7022010BD02460220E6
:10204000002902D00020C2F81C127047D0F81802F4
:10205000C0F8041200207047D0F81802C0F810220F
:10206000C0F808120020704770B50646D0F8185224
:1020700008780C4610F0600121D0202927D1E28891
:10208000AAB10006607807D5D6F81C128B682946DD
:102090009847E288294617E085F80002A07985F87C
:1020A0000102E2882946304600F038F80FE0D6F801
:1020B0001C12607800228B682146984707E0607800
:1020C0000A2804D103490122304600F041F80020DB
:1020D00070BD00007400002010B5D0F814225268C2
:1020E0009047002010BD134610B50A46002100F0AD
:1020F0005FFA002010BD134610B50A46002100F01B
:10210000E5FA002010BD10B50446802100F0C3FAA6
:102110002046BDE81040002100F0BDBA10B50323F1
:10212000C0F80821C0F8F431C0F80C2113460A4663
:10213000002100F03DFA002010BD10B5052100235C
:10214000C0F8F4111A46194600F032FA002010BD0A
:1021500010B502238261C0F8F431C26113460A4609
:10216000002100F0B3FA002010BD10B504210023B7
:10217000C0F8F4111A46194600F0A8FA002010BD64
:1021800010B50A46024903A000F0D4F8004810BD7B
:10219000A406002043444320436F6E666967000035
:1021A00012200880004870472000002010B50A4621
:1021B000024903A000F0BEF8004810BDA4060020AC
:1021C00043444320496E7465726661636500000094
:1021D00004200880004870471C00002010B50A4603
:1021E000024903A000F0A6F8004810BDA406002094
:1021F0004644494C494E4B0010B50A46024903A0DB
:1022000000F098F8004810BDA40600204644494C50
:10221000494E4B20436F6D506F72740010B51A20F9
:1022200008800A480168001D0468001D006808183D
:1022300009D008220649FFF70BFA0549042210319C
:102240002046FFF705FA0248801E10BDE8F7FF1F81
:1022500036000020F8B5044648880D46010A0829D2
:102260004BD2DFE801F04A0409174A4A4048D4F843
:102270001012207C0A6832E0207C02260028D4F864
:10228000140205D0C16A684688470146467041E09D
:10229000816AF8E7C0B206282FD2DFE800F0030811
:1022A0000D12171CD4F81012207C4A6817E0D4F8DD
:1022B0001012207C8A6812E0D4F81012207CCA68C0
:1022C0000DE0D4F81012207C0A6908E0D4F810124E
:1022D000207C4A6903E0D4F81012207C8A696946A0
:1022E0009047014616E0207C38B9D4F81402416BBF
:1022F00068468847F5E7207C20B129462046FFF74D
:1023000002FFF8BDD4F81402016B68468847014605
:1023100007204870BDF800000028F2D0EA88002AA3
:10232000EFD0824200D90246ADF800202046FFF7E8
:102330000FFFF8BD70B5002300281DD0044600250E
:1023400002E06D1CEDB2641C2678002EF9D1022447
:1023500004EB45041480CC545B1C0322CA540024B3
:102360005B1C06E0CA545B1CDAB28C54521CD3B21C
:10237000401C0278002AF5D170BD01004FF000002A
:1023800004D0012901D0022901D002207047012088
:10239000704710B580B1D0F8143213B10023C0F8E3
:1023A000143209B1C0F81012012180F8FC1102703A
:1023B00000F0A4F8002010BD022010BD10B5D0F828
:1023C0002002FEF7A7FABDE81040FFF7D6BF10B510
:1023D000D0F82002FEF77EFABDE81040FFF7CDBF2F
:1023E0002DE9F0411746044641B1D4F81402426980
:1023F0008AB394F8FC01032842D043E0D4F8F411E6
:10240000002504F11400022933D1D0E902639E4271
:1024100007D9F31A83609AB239462046FFF76BFE5C
:1024200012E04068B0FBF3F103FB1101A1B998423F
:1024300012D3D4F8F81188420ED200221146204659
:10244000FFF759FEC4F8F85100231A4619462046F2
:1024500000F0AEF80DE012E0D4F81402C16829B122
:1024600094F8FC01032801D1204688472046FFF755
:1024700064FE94F80002012804D184F8005201E0BF
:10248000204690470020BDE8F08170B5154604460F
:1024900041B1D4F8140282693AB394F8FC010328DC
:1024A00024D025E0D4F8F41104F5827003291FD15B
:1024B000D0E902218A420BD9531A8360084683422D
:1024C00000D303469AB229462046FFF70CFE0FE0E0
:1024D000D4F81402016929B194F8FC01032801D150
:1024E000204688472046FFF740FE01E020469047FF
:1024F000002070BDD0F82002FEF730BA10B50446B7
:102500001C481D49C0F85C44C4F820020160082141
:1025100041600221816000218161C1610162FEF799
:1025200025FB08B1FDF7D4FE0022D4F820021823C1
:10253000114604F50874FEF7A3F958230022802100
:102540002068FEF79DF9C023002281212068FEF754
:1025500097F94FF48873002201212068FEF790F963
:102560004FF48073002282212068FEF789F9002051
:1025700010BD000094120020005C00400A06D0F854
:10258000200201F07F0100EB411002D590F82A00F3
:10259000704790F82A02704710B51C461346D0F8D1
:1025A00020022246FEF7E2F9BDE81040FFF7E5BE43
:1025B00010B5D0F82002FEF7FBF9BDE81040FFF798
:1025C000DCBE70B50022044640231146FFF7E4FF4D
:1025D00040252B46002280212046C4F81051FFF7E9
:1025E000DBFF0120256284F8FC01D4F8180228B131
:1025F000D4F814022179426820469047002070BD2B
:1026000090F8FD1180F8FC110020704710B590F88B
:10261000FC11032904D1D0F81412C96901B188470B
:10262000002010BD01740020704710B5D0F82002C2
:10263000FEF735FBBDE81040FFF79FBE70B50446BE
:1026400000F50270054600F04AF80120C4F8F401D4
:10265000B4F80E02C4F8F80194F8080210F01F0153
:102660000AD001290DD0022910D000F080012046A7
:1026700000F011F8002070BD2946204600F095F8C2
:10268000F8E72946204600F077F9F3E72946204687
:1026900000F004F9EEE710B5D0F82002FEF79FF93C
:1026A000BDE81040FFF769BE10B5D0F82002FEF774
:1026B00011FBBDE81040FFF760BE90F8FC1180F8F8
:1026C000FD11042180F8FC110020704710B5D0F8EE
:1026D0002002FEF7AFF9BDE81040FFF74EBE0A78C2
:1026E00002704A7842708A78CB7802EB03224280EB
:1026F0000A794B7902EB032282808A79C97902EB4D
:102700000121C18070470246002011B1C2F81412A5
:1027100070470220704710B5D0F8142202241AB175
:102720001268904700B90024204610BD70B50E46CF
:102730001A4D897804462970012928D894F8FC019B
:10274000022802D0032822D105E099B1032061605C
:1027500084F8FC0109E091B1606888420AD0C1B2F6
:102760002046FFF7B9FC297861602046FFF7D3FFC8
:1027700002280CD02046BDE87040FFF7F6BC0220CE
:1027800084F8FC0120466160FFF7A6FCF2E73146C1
:102790002046BDE87040FFF7B6BC00007000002086
:1027A00010B5FFF781FF002010BD2DE9F041002694
:1027B0004B78012532460A2B43D2DFE803F03C5820
:1027C0004251420805422A27FFF744FD63E00446D0
:1027D0008888C8B9C888B8B9887800F07F0794F8A5
:1027E000FC01032810D084F8FE7139462046FFF71B
:1027F0001CFF2046FFF7B9FC1FB1022084F8FC0142
:1028000049E084F8FC5146E020461AE0FFF78EFFCD
:1028100041E0CB88012B14D190F8FC31022B02D07F
:10282000032B0ED104E08260012200F1080114E0C4
:102830000122011D11E090F8FC21022A04D0032A94
:1028400002D0FFF760FC26E0C560D0F8041209B1A1
:102850000321C160022200F10C01FFF779FC1AE0AC
:1028600004464888012816D1C4F804520BE00446F7
:1028700090F8FC01022801D00328C5D1488801281E
:1028800009D1C4F80422D4F8140282682046904783
:102890002046FFF76AFC3046BDE8F08170B50D4672
:1028A0000446287800260979C0F34110012806D093
:1028B0006878A0B301281FD003283FD107E0D4F8DF
:1028C00014022946826820469047002070BD94F883
:1028D000FC01022817D003282CD1688828B921B11F
:1028E000802902D02046FFF7D6FED4F814022946EC
:1028F00082682046904713E094F8FC01022802D039
:10290000032817D103E0C9B180291BD116E06888DC
:10291000A0B9480604D02046FFF750FDE5E703E0E4
:102920002046FFF722FC09E094F8FC01022807D0BA
:1029300003280BD029462046FFF7E5FB304670BD43
:102940004806FBD02046FFF7A6FEF7E7080601F091
:102950007F0004EB001501D5143501E005F5827503
:102960002046FFF70BFE00B1012028600222294615
:102970002046FFF7EDFBE1E770B5054690F8FC0156
:102980000C4603280DD1207901280AD8D5F8140265
:10299000826828469047E08830B92846FFF7E5FB73
:1029A00002E02846FFF7AFFB002070BD7047000033
:1029B00000487047741000202DE9F047CC780A7861
:1029C00048F68F1334B1012C6DD0022C08D0032CA3
:1029D00013D10BE030F822401C4044F400730AE0AD
:1029E00030F822401C4020F8224006E030F8224017
:1029F0001C4044F4C06320F822300C7830F8245096
:102A000048F68F72154048F280031D43254320F895
:102A100024508D7A48F6BF7904274BF68F7A48F216
:102A2000C0044CF28006EDB30D7830F825C048F2B2
:102A300080180CEA020C4CEA080C20F825C0CD885E
:102A4000B0F850C025F0010591F800800CEBC80CDF
:102A500000EB4C0CCCF800540D89B0F850C025F0B8
:102A6000010591F8008007EBC807674400EB4707B2
:102A7000C7F800544D78002D0D7830F825704FEAD6
:102A800047477DD0002F05DA30F8257017403743CF
:102A900020F825700D7830F825707F0608D530F8BD
:102AA000257001E024E01DE01740274320F8257041
:102AB0000C7830F824501540354320F824500C7819
:102AC00030F8242002EA09021A4320F824200A7868
:102AD00030F8221001EA0A01194320F822100020E0
:102AE000BDE8F08730F822401C4044F4806382E760
:102AF0004D78F5B18D88B0F8506025F001050F785C
:102B000006EBC70600EB4606C6F800540D7830F811
:102B10002560760605D530F825601640264320F856
:102B200025600A7830F8221001EA090181F02001BD
:102B3000D2E78C88B0F8505024F0010491F800C01E
:102B400007EBCC073D4400EB4505C5F80044B0F861
:102B500050400D78062707EBC5052C4400EB4407D1
:102B60000C694FF6FF7C07F580673E2C0CD9C4F347
:102B70004F15E40601D16D1EADB20CEA852400E0CC
:102B80001EE044F4004407E0C4F34F05E40701D01D
:102B90006D1CADB20CEA85243C600C7830F82450F2
:102BA0006D0405D530F824501540354320F82450E5
:102BB0000A7830F8221001EA0A0181F440518BE7CB
:102BC000002F05DA30F825701740374320F82570BC
:102BD0000D7830F82560760605D530F8256016406A
:102BE000264320F825600E7830F8265015402543FE
:102BF00020F826500C7830F8242002EA0A0282F4E9
:102C000040521A4320F824200A7830F8221001EAB2
:102C1000090161E7002070472DE9F04391F80A802F
:102C200091F801C00A7848F6BF774BF68F7948F2E1
:102C3000800348F2C0054CF2800648F68F74B8F164
:102C4000000F2ED0BCF1000F30F822C04FEA4C4CE0
:102C50004ED0BCF1000F07DA30F822C00CEA040CA9
:102C60004CEA060C20F822C00A7830F822C05FEA4D
:102C70004C6C07D530F822C00CEA040C4CEA050C69
:102C800020F822C00A7830F822502540354320F839
:102C900022500C7830F824203A401A4320F824209F
:102CA0001BE0BCF1000F0ED030F82260760605D58F
:102CB00030F8226026402E4320F822600A7830F84F
:102CC000221039400EE030F822506D0405D530F85E
:102CD00022502540354320F822500A7830F822103F
:102CE00001EA0901194320F822100020BDE8F08311
:102CF000BCF1000F07DA30F822C00CEA040C4CEAF1
:102D0000060C20F822C00A7830F82260760605D535
:102D100030F8226026402E4320F822600E7830F8EA
:102D2000262022402A4320F826200C7830F8242040
:102D300002EA09021A4320F82420BFE70020704766
:102D40000020704700B50121A0F840100021A0F834
:102D50004010A0F84410A0F8501000F03AF90020FC
:102D600000BD30F8401F21F43D4101800020704734
:102D70000020704730B54D780A78002D48F68F74E2
:102D800030F8225048F2800312D06D0607D530F893
:102D90002250254048F2C004254320F822500A78EA
:102DA00030F8221048F6BF74214081F0300111E064
:102DB0006D0407D530F8225025404CF2800425439D
:102DC00020F822500A7830F822104BF68F742140F8
:102DD00081F44051194320F82210002030BD10B575
:102DE0000A7848F2800352B14978002930F822105D
:102DF00010D048F6BF74214081F010010FE0018827
:102E00004BF6BF72114081F4805181F010011943DB
:102E1000018007E04BF68F74214081F48051194303
:102E200020F82210002010BD2DE9F0410D46064685
:102E3000896995F801C00023AA7A022728690C46FF
:102E400048F28008BCF1010F05D0814252D90446F6
:102E5000081AA8614FE0814203D90446081AA86104
:102E600000E0AB617AB1287836F820104906B6F850
:102E7000501007EBC000084406EB4000C0F80044C7
:102E800012D52A8911E0A3B2AA883046696900F0F8
:102E9000C8F8B6F85000297807EBC101084406EBE2
:102EA0004000C0F800441CE0EA88A3B230466969DB
:102EB00000F0B7F8687848F68F7110B1012807D094
:102EC0000FE0287836F820200A4048F2C00105E0DB
:102ED000287836F820200A404CF280010A4326F870
:102EE0002020297836F8210048F6BF72104080F083
:102EF000300067E0AB6106234FF6FF701AB1BCF1FA
:102F0000000F1BD056E0B6F850102A783E2C03EB89
:102F1000C202114406EB410202F5806239D9C4F3C2
:102F20004F11E30632D000BF00EA812040F4004098
:102F300002E000BF00EA812010603BE0B6F85010CC
:102F40002A783E2C07EBC202114406EB410202F53F
:102F500080620BD9C4F34F115FEAC46C01D1491EE2
:102F600089B200EA812141F4004108E0C4F34F0135
:102F70005FEAC47C01D0491C89B200EA812111605A
:102F800069780029BFD001290AD013E0491E89B20F
:102F9000CAE7C4F34F01E307CCD0491C89B2C9E7A3
:102FA000B6F85000297807EBC101084406EB400051
:102FB000C0F80044297836F821004BF68F72104093
:102FC00080F4405040EA080026F821000020BDE8C7
:102FD000F08130F8401F41F43F41018000207047EC
:102FE0000148FDF73CBD000094120020B0F84400F9
:102FF000704700005B1C00EB42005B0800F580603E
:1030000006D000BF30F8042B21F8022B5B1EF9D14B
:1030100070470020704711B98021A0F84C100020A3
:10302000704710B55B1C00EB42005B0800F5806048
:1030300009D011F8012B5B1E11F8014B42EA042262
:1030400020F8042BF5D110BDFEE702E008C8121FDE
:1030500008C1002AFAD170477047002001E001C181
:10306000121F002AFBD17047002202210262C0E930
:10307000001211464318491C83F83020FF29F9DD5E
:10308000002070472DE9F041174688460446002588
:1030900000F130060DE000BF18F80510204600F0E2
:1030A000ADF8C0B2012803D13146A06800F006F89F
:1030B0006D1CBD42F0DB0020BDE8F08100B5393861
:1030C000D5B06C2869D2DFE800F0366868686868B7
:1030D00068383F41686868686868686868686868F0
:1030E0006843684568686868473F49684B4E504583
:1030F0006868684768475268686A725047686850ED
:1031000054686868566868523F58746850685A68CE
:10311000685C5E68606862686860686A6868686859
:10312000685050414168686868686868686868689D
:10313000686C686E706C2E223CE055B038221F48D7
:103140005DF804EBFCF7EEBF302233E0482231E0BB
:1031500066222FE00E222DE010222BE04A2229E0E9
:103160004FF4A87226E0202224E0182222E0242234
:1031700020E014221EE0FF221CE086221AE01B221F
:1031800018E0492216E0152214E0312212E00888E6
:10319000ADF8000088788DF8020055B000BD4022DF
:1031A00008E0112206E0212204E0412202E0282268
:1031B00000E01C226846FCF7B5FFEEE7F41600209D
:1031C00030B5C3680022002B0BDD4368072B08D104
:1031D000036A00F130045D1C05621955016AFF297C
:1031E00001D9426030BDC168491EC16030BD0021B7
:1031F0004160C16081600162416170472DE9F04129
:103200000A46416800250446092903D34560E81EA3
:10321000BDE8F08104F124004FF0FF370A546168E3
:10322000092947D2DFE801F0050D11141722252BDB
:1032300038002046FFF7DBFFFC2A3BD1012060600D
:1032400027E00220C4E9010223E00320E260F6E760
:1032500004202261F3E70421A261FDF707F8A169C8
:10326000884227D1E06810B30520E8E70620E26134
:10327000E5E7E06942EA0020E0610720DFE7E06877
:10328000082640B111462046FFF79AFFE06800B9D2
:1032900066600020BCE76660FD2A0BD194F8201020
:1032A00004F13000FCF7CEFFE169814202D1012038
:1032B0006560ADE738466560AAE7000008B5FDF730
:1032C00051FAFEF7D2FB2648816941F02001816165
:1032D000816901F020010091816941F0040181615F
:1032E000816901F004010091416941F001014161EE
:1032F0004069002200F00100009011460E20FDF709
:103300008DFA0E20FDF77EFA002211460F20FDF700
:1033100085FA0F20FDF776FA134C12480C21206035
:103320004FF4612060600020A060E060C4E9040107
:10333000A061E0612046FEF79BF8FEF7A5F9206842
:10334000C16841F01001C1604FF4807204F5B8719A
:103350002046FEF72DF904F14000FFF785FEFEE759
:1033600000100240003801408801002000100E00CB
:10337000000008000000000000000000010203043B
:10338000060708090000000001020304005EBCE219
:10339000613FDD83C29C7E20A3FD1F419DC3217F31
:1033A000FCA2401E5F01E3BD3E6082DC237D9FC125
:1033B000421CFEA0E1BF5D0380DE3C62BEE0025C19
:1033C000DF81633D7C22C09E1D43A1FF4618FAA405
:1033D00027799BC584DA3866E5BB5907DB856739F1
:1033E000BAE406581947A5FB7826C49A653BD987E5
:1033F000045AB8E6A7F91B45C6987A24F8A6441AD9
:1034000099C7257B3A6486D85B05E7B98CD2306EC4
:10341000EDB3510F4E10F2AC2F7193CD114FADF3B0
:10342000702ECC92D38D6F31B2EC0E50AFF1134DA4
:10343000CE90722C6D33D18F0C52B0EE326C8ED098
:10344000530DEFB1F0AE4C1291CF2D73CA94762884
:10345000ABF517490856B4EA6937D58B5709EBB570
:1034600036688AD495CB2977F4AA4816E9B7550B64
:1034700088D6346A2B7597C94A14F6A8742AC89658
:10348000154BA9F7B6E80A54D7896B35000021100F
:10349000422063308440A550C660E77008812991BE
:1034A0004AA16BB18CC1ADD1CEE1EFF13112100266
:1034B00073325222B5529442F772D662399318830E
:1034C0007BB35AA3BDD39CC3FFF3DEE36224433432
:1034D00020040114E664C774A44485546AA54BB55E
:1034E00028850995EEE5CFF5ACC58DD55336722606
:1034F00011163006D776F6669556B4465BB77AA7AE
:1035000019973887DFF7FEE79DD7BCC7C448E55851
:103510008668A7784008611802282338CCC9EDD9FD
:103520008EE9AFF9488969990AA92BB9F55AD44AA5
:10353000B77A966A711A500A333A122AFDDBDCCB4D
:10354000BFFB9EEB799B588B3BBB1AABA66C877C71
:10355000E44CC55C222C033C600C411CAEED8FFD9D
:10356000ECCDCDDD2AAD0BBD688D499D977EB66E45
:10357000D55EF44E133E322E511E700E9FFFBEEFED
:10358000DDDFFCCF1BBF3AAF599F788F8891A981AF
:10359000CAB1EBA10CD12DC14EF16FE18010A10099
:1035A000C230E3200450254046706760B983989389
:1035B000FBA3DAB33DC31CD37FE35EF3B1029012E9
:1035C000F322D2323542145277625672EAB5CBA555
:1035D000A89589856EF54FE52CD50DC5E234C32439
:1035E000A01481046674476424540544DBA7FAB729
:1035F0009987B8975FE77EF71DC73CD7D326F23689
:103600009106B01657667676154634564CD96DC974
:103610000EF92FE9C899E9898AB9ABA944586548D8
:1036200006782768C018E1088238A3287DCB5CDBC8
:103630003FEB1EFBF98BD89BBBAB9ABB754A545A28
:10364000376A167AF10AD01AB32A923A2EFD0FED94
:103650006CDD4DCDAABD8BADE89DC98D267C076C78
:10366000645C454CA23C832CE01CC10C1FEF3EFF68
:103670005DCF7CDF9BAFBABFD98FF89F176E367EC8
:10368000554E745E932EB23ED10EF01E0000000027
:10369000963007772C610EEEBA51099919C46D075F
:1036A0008FF46A7035A563E9A395649E3288DB0EBA
:1036B000A4B8DC791EE9D5E088D9D2972B4CB6099D
:1036C000BD7CB17E072DB8E7911DBF906410B71D7A
:1036D000F220B06A4871B9F3DE41BE847DD4DA1AB3
:1036E000EBE4DD6D51B5D4F4C785D38356986C13E4
:1036F000C0A86B647AF962FDECC9658A4F5C01145D
:10370000D96C0663633D0FFAF50D088DC8206E3B3A
:103710005E10694CE44160D5727167A2D1E4033C4C
:1037200047D4044BFD850DD26BB50AA5FAA8B53573
:103730006C98B242D6C9BBDB40F9BCACE36CD83262
:10374000755CDF45CF0DD6DC593DD1ABAC30D92609
:103750003A00DE518051D7C81661D0BFB5F4B4210C
:1037600023C4B3569995BACF0FA5BDB89EB8022809
:103770000888055FB2D90CC624E90BB1877C6F2F8E
:10378000114C6858AB1D61C13D2D66B69041DC7689
:103790000671DB01BC20D2982A10D5EF8985B17162
:1037A0001FB5B606A5E4BF9F33D4B8E8A2C9077811
:1037B00034F9000F8EA8099618980EE1BB0D6A7FA8
:1037C0002D3D6D08976C6491015C63E6F4516B6B61
:1037D00062616C1CD83065854E0062F2ED95066C16
:1037E0007BA5011BC1F4088257C40FF5C6D9B0658B
:1037F00050E9B712EAB8BE8B7C88B9FCDF1DDD62E8
:10380000492DDA15F37CD38C654CD4FB5861B24D4D
:10381000CE51B53A7400BCA3E230BBD441A5DF4A17
:10382000D795D83D6DC4D1A4FBF4D6D36AE96943DA
:10383000FCD96E34468867ADD0B860DA732D044485
:10384000E51D03335F4C0AAAC97C0DDD3C710550B0
:10385000AA41022710100BBE86200CC925B5685757
:10386000B3856F2009D466B99FE461CE0EF9DE5EA0
:1038700098C9D9292298D0B0B4A8D7C7173DB35951
:10388000810DB42E3B5CBDB7AD6CBAC02083B8EDE2
:10389000B6B3BF9A0CE2B6039AD2B1743947D5EAEF
:1038A000AF77D29D1526DB048316DC73120B63E31E
:1038B000843B64943E6A6D0DA85A6A7A0BCF0EE47D
:1038C0009DFF099327AE000AB19E077D44930FF038
:1038D000D2A3088768F2011EFEC206695D5762F72F
:1038E000CB67658071366C19E7066B6E761BD4FE6C
:1038F000E02BD3895A7ADA10CC4ADD676FDFB9F949
:10390000F9EFBE8E43BEB717D58EB060E8A3D6D60A
:103910007E93D1A1C4C2D83852F2DF4FF167BBD138
:103920006757BCA6DD06B53F4B36B248DA2B0DD83B
:103930004C1B0AAFF64A0336607A0441C3EF60DFDE
:1039400055DF67A8EF8E6E3179BE69468CB361CBC7
:103950001A8366BCA0D26F2536E2685295770CCCEC
:1039600003470BBBB91602222F260555BE3BBAC52D
:10397000280BBDB2925AB42B046AB35CA7FFD7C21E
:1039800031CFD0B58B9ED92C1DAEDE5BB0C2649B0F
:1039900026F263EC9CA36A750A936D02A906099C42
:1039A0003F360EEB8567077213570005824ABF95B5
:1039B000147AB8E2AE2BB17B381BB60C9B8ED29238
:1039C0000DBED5E5B7EFDC7C21DFDB0BD4D2D3868F
:1039D00042E2D4F1F8B3DD686E83DA1FCD16BE8102
:1039E0005B26B9F6E177B06F7747B718E65A0888D3
:1039F000706A0FFFCA3B06665C0B0111FF9E658F64
:103A000069AE62F8D3FF6B6145CF6C1678E20AA00D
:103A1000EED20DD75483044EC2B30339612667A793
:103A2000F71660D04D476949DB776E3E4A6AD1AEE2
:103A3000DC5AD6D9660BDF40F03BD83753AEBCA971
:103A4000C59EBBDE7FCFB247E9FFB5301CF2BDBDDE
:103A50008AC2BACA3093B353A6A3B4240536D0BAE7
:103A60009306D7CD2957DE54BF67D9232E7A66B384
:103A7000B84A61C4021B685D942B6F2A37BE0BB431
:103A8000A18E0CC31BDF055A8DEF022DAC3A000846
:103A9000000000208801000090010008743B00082D
:103AA00088010020A81900005A30000813A1211B2A
:103AB00008D1041ADD041AF904131D221B08810819
:103AC0001AAD04170403090412011402020216407D
:103AD00083044057260201020301031A1A03130943
:103AE000021B08050413E9011B082D08192F118278
:103AF0001084A24A04130A0632022A40201C09023A
:103B0000435B111CC032091F1B01020B1305241655
:103B100010010524011009010424020205240617DE
:103B20000107058203081C10090491320A1D0705CC
:103B30000102432C070581070938442A40072A81DE
:103B400007112B0907440A2204440A16FF44138D67
:103B50001F1408FB1E1408692042081A37101AB9EE
:103B6000101ACD04C11A75181A69041A81041A5D55
:043B7000040000004D
:04000005080000ED02
:00000001FF
