:020000040800F2
:100000003007002029020008731B0008611A00084D
:10001000711B00081F040008591E000800000000A2
:10002000000000000000000000000000771B000836
:100030005104000800000000751B0008791B00082F
:10004000430200084302000843020008430200087C
:10005000430200084302000843020008430200086C
:10006000430200084302000843020008430200085C
:10007000430200084302000843020008430200084C
:10008000430200084302000843020008430200083C
:10009000210400082D040008430200084302000860
:1000A000430200084302000843020008430200081C
:1000B000430200084302000843020008430200080C
:1000C00043020008430200084302000843020008FC
:1000D000430200084D1E00084302000843020008C6
:1000E00043020008430200084302000843020008DC
:1000F00043020008430200084302000843020008CC
:1001000043020008430200084302000843020008BB
:1001100043020008430200084302000843020008AB
:10012000430200084302000843020008430200089B
:10013000430200084302000843020008430200088B
:10014000390400084504000843020008430200087F
:10015000430200084302000843020008430200086B
:10016000430200084302000843020008430200085B
:100170004302000843020008430200080000000098
:10018000430200084302000800F002F800F03CF8C7
:100190000AA090E8000C82448344AAF10107DA45E2
:1001A00001D100F031F8AFF2090EBAE80F0013F0F8
:1001B000010F18BFFB1A43F0010318476C1D000024
:1001C0008C1D0000103A24BF78C878C1FAD85207B5
:1001D00024BF30C830C144BF04680C6070470000C1
:1001E0000023002400250026103A28BF78C1FBD840
:1001F000520728BF30C148BF0B6070471FB501F0E0
:1002000081FE1FBD10B510BD00F0CFF81146FFF7FD
:10021000F5FF01F05FFE00F0EDF803B4FFF7F2FF29
:1002200003BC00F0F5F80000094880470948004782
:10023000FEE7FEE7FEE7FEE7FEE7FEE7FEE7FEE796
:10024000FEE7FEE704480549054A064B70470000F3
:10025000111C00088901000830010020300700202F
:10026000300300203003002053EA020C00F06980C4
:100270002DE9F04B4FF00006002B1FBFB3FA83F5BA
:1002800003FA05F424FA05F65E4012BF1643B2FAEB
:1002900082F502FA05F4C5F120051EBF22FA05FC1D
:1002A00044EA0C04203556EA044C4FEA144418BFC3
:1002B000641C4FF000084FF00009904271EB030CF2
:1002C00039D3002919BFB1FA81F701FA07F6B0FA5C
:1002D00080F700FA07F6C7F120071EBF20FA07FCD7
:1002E00046EA0C062037B6FBF4FCA7EB0507103FE7
:1002F00007F01F0BCBF120060CFA0BFB2CFA06F6CD
:1003000044BFB3460026202FA4BF5E464FF0000B2B
:100310005BEA060C08BF4FF0010B19EB0B09ABFBB6
:10032000027C48EB0608C01B06FB02CC0BFB03CC8F
:1003300071EB0C01C1E70B46024641464846BDE859
:10034000F08B13B54FF000004FF00001AFF30080C9
:10035000BDE81C4070474FF0000200B513469446BC
:100360009646203922BFA0E80C50A0E80C50B1F10D
:100370002001BFF4F7AF090728BFA0E80C5048BF21
:100380000CC05DF804EB890028BF40F8042B08BFBF
:10039000704748BF20F8022B11F0804F18BF00F8BB
:1003A000012B7047704770477047754600F02CF876
:1003B000AE4605006946534620F00700854618B052
:1003C00020B5FFF73FFFBDE820404FF000064FF09B
:1003D00000074FF000084FF0000B21F00701AC467A
:1003E000ACE8C009ACE8C009ACE8C009ACE8C00999
:1003F0008D46704710B50446AFF300802046BDE837
:100400001040FFF70ABF000000487047D0000020EE
:1004100001491820ABBEFEE7260002007047FEE748
:10042000014800F04ABA00003C000020014800F0FA
:1004300044BA00003C000020014800F03EBA000031
:1004400064000020014800F038BA00006400002079
:10045000704772B6FEE700000CB540F25233A0F2CE
:100460005232984265D048DCB0F5447F61D020DC40
:1004700040F29123A0F2912298425AD00CDC40F233
:100480007223A0F2722298424CDD012A4AD0172A28
:100490004FD01E2A46D14CE0752A4AD002DC012AF0
:1004A00040D146E0762A44D0772A3BD0782A39D109
:1004B0003FE0B0F54C7F35D015DCB0F5487F31D04A
:1004C00008DCA0F54070113833D0012831D0022863
:1004D00028D12EE0A0F5407021382AD0042828D059
:1004E00008281FD125E0A0F2313008281AD2DFE811
:1004F00000F02020201919202020322A12D01EDCE2
:100500001E2A16D00EDC042A13D00CDC012A36D0A9
:10051000022A07D1086800908888ADF8040088791D
:100520008DF806000CBD062AFCD0162AFAD0172A30
:10053000F8D1086800908888ADF804000CBD402A06
:10054000FCDD1648B2F5E77F1DD00DDC412AF5D061
:10055000B2F5E37FF2D0A2F58072C73AEED10A6815
:1005600082614968C1610CBDA2F58072CF3A0FD09B
:10057000232AF8D10A680260496841600CBD0888E6
:10058000ADF800000CBD0A680261496841610CBD0C
:100590000A6882604968C1600CBD00001400002038
:1005A00010B588B0A024019404240294002403947C
:1005B00008240494064C20706170A270E37006ABAE
:1005C00022466946034800F019F808B010BD000043
:1005D000340000203C00002090F82020012A07D0A1
:1005E000022A05D0416A41F480214162012070470E
:1005F000006842690A43426100207047F0B590F8F4
:1006000020500468A468012D05D0022D03D0416A52
:1006100041F4802153E014F0406F01D1E5004BD547
:10062000C4F30164022C03D9416A41F4000146E09D
:100630000125A5401D608D684FF4C0739DB1CE6843
:1006400035434E6845EAC605066803EB0417F551C5
:100650004FF4C275076805EB04150E697E51097DDC
:10066000012905D009E00E88CD6845EA4655EBE73B
:1006700001684E5946F480764E511179D2F80550F2
:100680004FF4C67641EA0525016806EB04168D5144
:100690001178D2F801204FF4C47541EA02210268B2
:1006A00005EB04155151006803EB0411425842F068
:1006B000010242500020F0BD416A41F40011416244
:1006C0000120F0BD10B590F82020012A07D0022AA1
:1006D00005D0416A41F480214162012010BD3B48B0
:1006E000D0F8002242F00102C0F80022D0F8002227
:1006F00022F47C52C0F80022D0F800224B6A42EA71
:100700000322C0F800220A7D02F01F0301229A4052
:10071000D0F81C329343C0F81C32CB69B3B9D0F87F
:100720000C329343C0F80C328C894B6864F31F433E
:100730004C6900EBC404C4F840320C890B6864F3C4
:100740001F434C6900EBC404C4F84432CB69012B4D
:1007500016D1D0F80C321343C0F80C320C884B6819
:1007600064F31F434C6900EBC404C4F840320C89A5
:10077000CB6864F31F434C6900EBC404C4F84432F3
:100780008B69002BD0F804320ED01343C0F804322A
:100790000B69002BD0F8143208D01343C0F8143280
:1007A000096A012904D008E09343EFE79343F5E792
:1007B000D0F81C121143C0F81C12D0F8001221F01E
:1007C0000101C0F80012002010BD000000640040CC
:1007D000704730B590F82040012C05D0022C03D092
:1007E000416A41F480215DE00468002955D0246904
:1007F000A40754D04FF4D874056804EB01142D59A4
:1008000015F00405956005682D594ED0ED0855602A
:1008100005682C5904F00204D4604FF4DA740568BA
:1008200004EB01142D5905F00F05156105682D59CC
:10083000C5F30725956105682C59240C54614FF4C4
:10084000DC72046802EB0112A4581C700468A458FE
:10085000240A5C700468A458240C9C700468A25894
:10086000120EDA704FF4DE72046802EB0112A45823
:100870001C710468A458240A5C710468A458240CF0
:100880009C710468A258120EDA71006881B1016986
:1008900041F020010161002030BDE468A8E7416A11
:1008A00041F400114162012030BD6D0D1560AFE7CC
:1008B000C16841F02001C160EDE72DE9F05F054618
:1008C000006800244669D0F804908768D0F80CB01E
:1008D000D0F810A0D0F81880F10748D0F90714D04C
:1008E00001218160B80703D5284600F04AFA0CE0E0
:1008F000780702D54FF4006407E0380702D54FF4BB
:10090000805402E0284600F03BFAF80516D5296825
:100910004FF480708860B80503D5284600F033FA9C
:100920000CE0780502D544F4005407E0380502D500
:1009300044F4804402E0284600F024FAF80316D577
:1009400029684FF480308860B80303D5284600F04A
:100950001CFA0CE0780302D544F4004407E03803A5
:1009600002D544F4803402E0284600F00DFA300746
:1009700007D55FEACB6004D52968102044F40074E1
:10098000C86070074FF0080707D55FEA0B7004D501
:100990002868C760284600F0A9F9B00706D528687E
:1009A000C068800702D0284600F0A1F9700607D57C
:1009B0005FEACA6004D52968102044F480640861A5
:1009C000B00607D55FEA0A7004D528680761284693
:1009D00000F0A6F9F00606D528680069800702D065
:1009E000284600F09EF9B00308D55FEAC96005D536
:1009F000296810204860284600F094F9F00307D5D4
:100A00005FEA097004D528684760284600F0BEF9FF
:100A1000300446D55FEA497040D5F00504D55FEA59
:100A2000C87001D044F00104B00504D55FEA8870B5
:100A300001D544F00204700504D55FEA487001D581
:100A400044F00404300529D518F0700F26D008F0C2
:100A50007000402815D006DC102809D020280AD0C4
:100A6000302816D10AE050280ED0602811D10EE0AF
:100A700044F008040DE044F010040AE044F02004BF
:100A800007E044F0400404E044F0800401E044F452
:100A900080742868816921F07001816129680420CF
:100AA0004860002C05D0686A204368622846FFF73A
:100AB0008FFEBDE8F09F70B5040003D094F82000CD
:100AC00010B104E0012070BD204600F081F82068DC
:100AD000016841F00101016000F0BEFA05460526FB
:100AE00004E000F0B9FA401B0A2811D820684068D9
:100AF000C007F6D02068016821F00201016000F013
:100B0000ABFA05460BE000F0A7FA401B0A2806D90D
:100B1000606A40F40030606284F82060D2E72068A8
:100B200040688007EFD4207E0128206801683DD00E
:100B300021F080010160607E01282068016838D0C2
:100B400021F040010160A07E01282068016833D0B7
:100B500021F020010160E07E0128206801682ED08C
:100B600041F010010160207F01282068016829D030
:100B700021F008010160607F01282068016824D00D
:100B800021F004010160D4E902010843D4E9041210
:100B9000114308436168491E08432168C861002069
:100BA0006062012084F82000002070BD41F08001C7
:100BB000C0E741F04001C5E741F02001CAE721F05C
:100BC0001001CFE741F00801D4E741F00401D9E773
:100BD000F0B587B0044614216846FFF7BCFB3E4BD6
:100BE0003E48DFF8F0E01968D4F800C03B4A03251E
:100BF0000226092710300024491CF4452AD1196027
:100C0000012907D1016841F000710160006800F01E
:100C100000700590106840F0080010601068CDE981
:100C2000005600F00800CDE9047069462C48CDE973
:100C3000024500F019F900221146142000F07AFA5A
:100C4000142000F069FA00221146152000F072FA13
:100C500015203AE0DFF88CE0F44538D1D0F800C038
:100C60004CF0806CC0F800C0D0F800C001290CF036
:100C7000806CCDF814C0196007D1016841F0007193
:100C80000160006800F000700590106840F00200FC
:100C90001060106802AB00F0020005906020CDE902
:100CA000000683E8B00069460F4800F0DDF8002236
:100CB0001146402000F03EFA402000F02DFA0022BC
:100CC0001146412000F036FA412000F025FA07B025
:100CD000F0BD0000006400400000002030380240F9
:100CE000000C02400068004000040240704700B55C
:100CF00089B007AB6A460021FFF76BFD029868B127
:100D0000042809D10198000C012805D1019880B26E
:100D1000019007A9FFF7A0FB09B000BD0098F8E714
:100D2000704770477047000070B5044690F8200087
:100D3000012804D0606A40F40020606218E00220BC
:100D400084F820002068016821F00101016000F0B2
:100D500083F905460EE000BF00F07EF9401B0A282B
:100D600008D9606A40F400306062052084F82000F1
:100D7000012070BD20684068C007EDD1606270BD81
:100D800070477047704770477047704770472DE94C
:100D9000F0410446876D00F05FF9064694F835008F
:100DA0000025022806D08020606584F83450012098
:100DB000BDE8F0812068016821F01601016020681B
:100DC000416921F080014161206C08B9A06C20B11B
:100DD0002068016821F0080101602068016821F0A5
:100DE000010101600CE000F037F9801B052807D9EC
:100DF00020206065032084F8350084F83450D7E75C
:100E000020680068C007EED194F85C103F2088404D
:100E1000B860012084F8350084F834500020C7E71A
:100E200090F83510022903D08021416501207047D8
:100E3000052180F835100068016821F0010101608A
:100E40000020704770B5044600F006F90546601CA6
:100E500002D004480078044400F0FEF8401BA04291
:100E6000FAD370BD040000202DE9F84FDFF8BCA1D3
:100E70000022012503264FF00F090AF1040BAAF105
:100E8000040E00BF0B6805FA02F42340A34270D1A0
:100E90000F7907F00307012F01D0022F16D18768C1
:100EA0004FEA420806FA08FC27EA0C07D1F80CC002
:100EB0000CFA08FC4CEA070CC0F808C04768A743C6
:100EC0000C79C4F3001494403C4344600C79E4432F
:100ED000A4070AD0C4684FEA420C06FA0CF7BC43D8
:100EE0008F6807FA0CF72743C7600C7904F00304F6
:100EF000022C12D1D40800EB840CDCF820405707F8
:100F0000FF0E09FA07F824EA0804D1F8108008FA5D
:100F100007F848EA0408CCF8208004684FEA420C3D
:100F200006FA0CF7BC430F7907F0030707FA0CF732
:100F3000274307604C6814F4403F70D03C4C27684E
:100F400047F480472760246822F0030704F48044B4
:100F50000094384C07EB040CDCF8084897074FEA7C
:100F6000177809FA08F7BC43334FB84202D100277B
:100F700024E054E0314FB84201D101271EE0304F48
:100F8000B84201D1022719E02E4FB84201D1032700
:100F900014E02D4FB84201D104270FE02B4FB84287
:100FA00001D105270AE02A4FB84201D1062705E002
:100FB000284FB84201D1072700E0082707FA08F7B1
:100FC0002743CCF80878DAF800405746D1F804C037
:100FD0009C435FEACC2C00D51C433C60DBF800400E
:100FE0005F46D1F804C09C435FEA8C2C00D51C43BB
:100FF0003C60DEF800407746D1F804C09C435FEACD
:101000008C3C00D51C433C60084F083F3C68D1F83D
:1010100004C09C435FEACC3C00D51C433C60521C9E
:10102000102AFFF42FAFBDE8F88F0000083C014004
:1010300044380240003001400000024000040240F9
:1010400000080240000C0240001002400014024060
:1010500000180240001C02400148806870470000F0
:1010600004000020024881680278114481607047C2
:10107000040000200B4810B5016841F400710160C4
:10108000016841F480610160016841F48071016090
:10109000032000F06FF80F2000F006F800F024F8AD
:1010A000002010BD003C024070B50D4D04464FF4C9
:1010B0007A712878B1FBF0F00A490968B1FBF0F0C9
:1010C00000F000FB48B9102C07D200222146501E28
:1010D00000F030F800206C6070BD012070BD000091
:1010E00004000020100000200A4808B5016841F4FF
:1010F00080410160006800F4804000900548001FB6
:10110000016841F080510160006800F0805000905B
:1011100008BD000044380240002809DB00F01F022F
:10112000012191404009800000F1E020C0F8001149
:1011300070470000F0B40E4B1B680C46C3F302234B
:10114000C3F10705042D00D90425191D072901D273
:10115000002300E0DB1E012606FA05F1491E2140AE
:1011600099409E40761E16403143F0BC00F075BE9B
:101170000CED00E0064900F0070208684FF6FF0397
:10118000184040EA0220034A1043086070470000FC
:101190000CED00E00000FA052DE9F0470E460500D1
:1011A00065D0DFF81481D8F80000F7B200F007002E
:1011B000B04207D288F80070D8F8000000F00700AD
:1011C000B04254D128683D4C810712D5400703D561
:1011D000206840F4E05020602878000703D520689C
:1011E00040F4604020602068A96820F0F0000843C7
:1011F00020602878C0072DD0304968680839012858
:1012000012D0022813D0032811D0096889070029B9
:101210002DDA216821F0030101432160FFF71CFF53
:10122000814641F2883A0EE009688903EFE70968D0
:101230008901ECE7FFF710FFA0EB0901514502D946
:101240000320BDE8F0872068696800F00C00B0EB6F
:10125000810FEFD1D8F80010404601F00701B142EC
:1012600007D90770006800F00700B04201D00120E4
:10127000E7E72878400705D52068E96820F4E050C2
:10128000084320602878000706D52068296920F4E3
:10129000604040EAC100206000F038F82168084A48
:1012A000C1F30311515CC840064908600648006854
:1012B000FFF7FAFE0020C4E7003C02400838024075
:1012C0000E1F0008100000200800002004480549F7
:1012D00000680968044AC1F38221515CC840704724
:1012E00010000020083802401E1F0008044805496D
:1012F00000680968044AC1F34231515CC840704734
:1013000010000020083802401E1F0008104810B5C9
:10131000006810F00C010F4818D0042916D00829D5
:1013200014D10B4C241F216801F03F022168216871
:101330000023C1F38811A1FB0001FEF795FF21688E
:10134000C1F30141491C4900B0FBF1F010BD0000A0
:10135000083802400024F4002DE9F84F04006ED054
:101360002078DFF84C93C007A9F104054AD009F1B1
:1013700004000168C1F38101012908D00068C0F3AD
:10138000810002280AD1D9F80000400206D5286859
:10139000800337D560680028E1D033E06068B0F59D
:1013A000803F10D0B0F5A02F286810D020F48030F6
:1013B0002860286820F4802028606068A8B1FFF7C2
:1013C0004BFE06460DE0286840F48030F4E740F418
:1013D00080202860F7E700BFFFF73EFE801B6428EF
:1013E00073D828688003F7D50CE0FFF735FE064672
:1013F00005E000BFFFF730FE801B6428F0D82868A6
:101400008003F7D42078DFF8AC8280074FF0000A21
:101410003ED5A748001D016811F00C0F08D00068E8
:10142000C0F3810002280BD1D9F80000400207D494
:101430002868800716D5E068012800D112E033E162
:10144000E068B8B10120C8F80000FFF705FE0646C5
:1014500005E000BFFFF700FE801B0228C0D8286807
:101460008007F7D52868216920F0F80040EAC1001C
:1014700028600DE0C8F800A0FFF7EEFD064604E086
:10148000FFF7EAFD801B02281FD828688007F7D4E1
:101490002078000722D5864F87486169703771B17F
:1014A00001210160FFF7D8FD064604E0FFF7D4FDF7
:1014B000801B022809D838688007F7D50EE0C0F8ED
:1014C00000A0FFF7C9FD064605E082E0FFF7C4FD76
:1014D000801B02287DD838688007F7D42078400721
:1014E00068D5DFF8CCB100270BF13C0BDBF800002E
:1014F000C0000BD4DBF8001041F08051CBF8001095
:10150000DBF80000012700F0805000906B4E30683F
:10151000C00510D4306840F480703060FFF79CFD47
:10152000009005E0FFF798FD0099401A022850D876
:101530003068C005F6D55E4EA0686C3601280FD025
:101540000528306810D020F001003060306820F0AD
:1015500004003060A068B8B1FFF77EFD00900FE096
:10156000306840F00100F4E740F004003060F7E735
:10157000FFF772FD0099411A41F28830814266D826
:1015800030688007F4D50EE0FFF766FD009007E0B5
:10159000FFF762FD0099411A41F28830814256D826
:1015A00030688007F4D42FB1DBF8001021F08051AF
:1015B000CBF80010A069C8B33D49091D0968C1F303
:1015C000810102294AD00228504607D0C8F860009D
:1015D00000E03CE0FFF740FD04463BE04746C8F82A
:1015E0006000FFF739FD064605E000BFFFF734FD58
:1015F000801B02282BD828688001F7D4D4E9070182
:101600000843A16A2E4A490802EB0141626A41EA95
:101610008211084394F82C1040EA0161C9F80010C7
:1016200001203866FFF718FD044606E03EE000BFE3
:10163000FFF712FD001B022809D828688001F7D5A2
:1016400034E000BFFFF708FD001B022802D9032089
:10165000BDE8F88F28688001F4D427E00128F7D08E
:10166000D9F80000E26900F4800191421CD1226A9D
:1016700000F03F01914217D147F6C071626A014004
:10168000B1EB821F10D1A26A4FF0FF3300F440315A
:1016900003EB5202B1EB024F06D194F82C1000F08C
:1016A0007060B0EB016F01D00120D1E70020CFE7DF
:1016B0000438024000004742800E4742007000405C
:1016C0000000FFFF10B5401EB0F1807F01D3012064
:1016D00010BD4FF0E02460610F21601700F0BDFBEA
:1016E0000020A06107202061002010BD70477047D6
:1016F000F8B5016804460868CA684B6910F00F0F16
:101700004FF0000559D003F0010602F490773743FB
:1017100065D0C10705D0D10503D5216C41F0010189
:101720002164410705D5D90703D0216C41F002019E
:101730002164810705D5D90703D0216C41F004014C
:101740002164010707D502F02001314303D0216C49
:1017500041F008012164216C00293AD0800604D5AB
:10176000900602D5204600F08AFA20684069216C74
:10177000C0F38010090700D460B3204600F058FA87
:1017800020684069400621D52068143050E8001FC9
:1017900021F0400140E80012002AF5D1A06BA8B169
:1017A0006C490165A06BFFF73BFB002811D0A06BD3
:1017B000016D01B0BDE8F040084783060FD59306E0
:1017C0000DD52046BDE8F84000F059BA2046FFF795
:1017D0008EFFF8BD2046FFF78AFF2564F8BD266B13
:1017E0002023012E79D1C60677D5D60675D508688F
:1017F000486800904869400640D5A16B0868406879
:101800000004000CEAD0A28D8242E7D9E085C869C5
:10181000B0F5807F2DD020680C3050E8001F21F4F7
:10182000807140E80012002AF5D12068143050E899
:10183000001F21F0010140E80012002AF5D12068C4
:10184000143050E8001F21F0400140E80012002A47
:10185000F5D184F83E30256320680C3050E8001F35
:1018600021F0100140E80012002AF5D1A06BFFF72B
:101870008EFAA08DE18D401A81B229E0A08DE18D14
:10188000401A81B2E08D0028A8D00029A6D0206897
:101890000C3050E8002F22F4907240E80026002E11
:1018A000F5D12068143050E8002F22F0010240E802
:1018B0000026002EF5D184F83E30256320680C30D8
:1018C00050E8002F22F0100240E80023002BF5D151
:1018D0002046FFF70BFFF8BDFFE705062BD51506E1
:1018E00029D594F83D002128F5D1A068B0F5805F96
:1018F00001D12069B0B1206A411C216221680078C1
:101900004860E08C401E0004000CE084E3D12068B5
:10191000C16821F08001C1602068C16841F04001C8
:10192000C160D8E7206A0088C0F308004860206AD8
:10193000801C2062E5E74006CDD55006CBD5CA68AD
:10194000204622F04002CA6084F83D3000F087F85B
:10195000C1E70000211C000870B5040004D094F811
:101960003D00002510B106E0012070BD84F83C5018
:10197000204600F023F8242084F83D002068C16848
:1019800021F40051C160204600F0DAF920680169B5
:1019900021F4904101612068416921F02A014161EF
:1019A0002068C16841F40051C1602564202084F89A
:1019B0003D0084F83E00002070BD0000F0B587B007
:1019C000044614216846FEF7C6FC20492068884278
:1019D0003AD11F480024016841F0100101600068FD
:1019E00000F0100005901A481438016841F0020117
:1019F0000160016801F002010591016841F00101F7
:101A000001600068022500F0010005908020CDE90A
:101A1000000502AA0326072782E8D00069460D4880
:101A2000FFF722FA2802CDE9000502AA694682E8FA
:101A3000D0000948FFF718FA002211462520FFF7C9
:101A400079FB2520FFF768FB07B0F0BD00100140CF
:101A500044380240000402400000024070477047D2
:101A6000FEE700000F4810B50D49016003214160F9
:101A700000214FF410228160C0E903124FF40012DC
:101A80004261017641768176C17601774177FFF731
:101A900012F8002803D0BDE81040FEF7DABC10BDF4
:101AA000006400403C0000200F4810B50D49016063
:101AB0000321416000214FF410228160C0E903122C
:101AC0004FF400124261017641768176C17601774A
:101AD0004177FEF7F0FF002803D0BDE81040FEF785
:101AE000B8BC10BD0068004064000020114808B573
:101AF000016841F002010160016801F002010091FA
:101B0000016841F001010160016801F001010091EB
:101B1000016841F008010160016801F008010091CD
:101B2000016841F080010160006800F080000090D1
:101B300008BD0000303802400C4810B50A49016069
:101B40004FF4E1314160002181600C22C160C0E9A5
:101B500004128161C161FFF7FFFE002803D0BDE8D8
:101B60001040FEF776BC10BD001001408C00002034
:101B7000FEE7FEE770477047FFF774BA30B593B0E1
:101B800030216846FEF7E7FB14210CA8FEF7E3FBC3
:101B90001D480025016841F080510160006800F097
:101BA000805011901948016841F48041016000683B
:101BB000022400F480401190012003901020049032
:101BC000009406940820CDE90750A820CDE9090427
:101BD00004200B906846FFF7BFFB08B172B6FEE722
:101BE0000CA90F2081E831004FF4A0500F904FF462
:101BF0008050109005210CA8FFF7CEFA002801D0E4
:101C000072B6FEE713B030BD4038024000700040AD
:101C10000248016841F470010160704788ED00E0FE
:101C200010B5806B0021C185C184FFF760FD10BD38
:101C300001680C3151E8002F22F4907241E8002332
:101C4000002BF5D10168143151E8002F22F0010278
:101C500041E80023002BF5D1016B012909D101686E
:101C60000C3151E8002F22F0100241E80023002B34
:101C7000F5D1202180F83E1000210163704708B59E
:101C800090F83E10222901D0022008BD82684FF44E
:101C900080539A4201D1016921B1816A9A421BD0D5
:101CA0004AB10AE00268816A5268C2F308020A80F7
:101CB000816A891C08E0026972B10268526802F008
:101CC0007F020A70816A491C8162C18D491E090424
:101CD000090CC18503D019E002685268F1E7016878
:101CE000CA6822F02002CA600168CA6822F48072C1
:101CF000CA6001684A6922F001024A61202180F825
:101D00003E10016B012903D0FFF7A8FE002008BD9B
:101D10000021016301680C3151E8002F22F010020C
:101D200041E80023002BF5D101680A68D20602D5EC
:101D30000A6849680091818DFFF7D8FCE6E700004A
:101D400070B5044600680169E26821F4405111430E
:101D500001612169A068E269084361691143084390
:101D60002168CA6849F20C639A430243CA6020683A
:101D70004169A26921F440711143416131492068F0
:101D8000884202D03049884202D1FFF7AFFA01E021
:101D9000FFF79CFAE2690023192164253226B2F587
:101DA000004F626828D0A0FB0101930F9200FEF75C
:101DB0005BFA0146B0FBF5F06FF01802504301EBFF
:101DC000800006EB0010B0FBF5F000F0F002B1FB74
:101DD000F5F002EB0012B1FBF5F06FF01803584379
:101DE00001EB800006EB0010B0FBF5F000F00F00F7
:101DF00021681044886070BDA0FB010192185B410E
:101E0000FEF732FA0146B0FBF5F00201B1FBF5F046
:101E10006FF01803584301EB800006EBC000B0FBE5
:101E2000F5F000F0F80002EB4002B1FBF5F058438A
:101E300001EB800006EBC000B0FBF5F000F00700FE
:101E4000D6E7000000100140001401400148FFF7F0
:101E50004FBC00008C000020FEE70907090E002897
:101E600004DB00F1E02080F80014704700F00F0060
:101E700000F1E02080F8141D7047000000B58BB021
:101E800000200121CDE90601089100900190029007
:101E900003900590049069460C48FEF713FC0B482C
:101EA000FEF742FF02210948FEF796FB0E2009903B
:101EB000059069460648FEF705FC0548FEF734FF25
:101EC00002210348FEF788FB0BB000BD3C00002058
:101ED00064000020FFF7CEF8FFF750FEFFF706FE84
:101EE000FFF7C0FDFFF7E0FDFFF726FEFFF7C6FF97
:101EF0000423032202210120FEF752FB6420FEF797
:101F0000A1FFF5E74FF04070E1EE100A70470000C6
:101F10000000000000000102030406070809000099
:101F20000000010203040000481F00080000002018
:101F30003C000000C4010008841F00083C00002091
:101F4000F4060000E00100080000000001000000AD
:101F500010000000000000000024F4000000000059
:101F60000000000000000000000000000000000071
:101F70000000000000000000000000000000000061
:041F8000000000005D
:040000050800018965
:00000001FF
