:020000040800F2
:100000001808002029020008E71B0008D51A00087C
:10001000E51B00080B050008CD1E000800000000CD
:10002000000000000000000000000000EB1B0008C2
:100030005D05000800000000E91B0008ED1B00083A
:10004000430200084302000843020008430200087C
:10005000430200084302000843020008430200086C
:10006000430200084302000843020008430200085C
:10007000430200084302000843020008430200084C
:10008000430200084302000843020008430200083C
:100090000D05000819050008430200084302000886
:1000A000430200084302000843020008430200081C
:1000B000430200084302000843020008430200080C
:1000C00043020008430200084302000843020008FC
:1000D00043020008C11E0008430200084302000852
:1000E00043020008430200084302000843020008DC
:1000F00043020008430200084302000843020008CC
:1001000043020008430200084302000843020008BB
:1001100043020008430200084302000843020008AB
:10012000430200084302000843020008430200089B
:10013000430200084302000843020008430200088B
:1001400025050008310500084302000843020008A5
:10015000430200084302000843020008430200086B
:10016000430200084302000843020008430200085B
:100170004302000843020008430200080000000098
:10018000430200084302000800F002F800F03CF8C7
:100190000AA090E8000C82448344AAF10107DA45E2
:1001A00001D100F031F8AFF2090EBAE80F0013F0F8
:1001B000010F18BFFB1A43F001031847D4240000B5
:1001C000F4240000103A24BF78C878C1FAD8520746
:1001D00024BF30C830C144BF04680C6070470000C1
:1001E0000023002400250026103A28BF78C1FBD840
:1001F000520728BF30C148BF0B6070471FB501F0E0
:10020000B5FE1FBD10B510BD00F046F91146FFF751
:10021000F5FF01F099FE00F064F903B4FFF7F2FF77
:1002200003BC00F06BF9000009488047094800470B
:10023000FEE7FEE7FEE7FEE7FEE7FEE7FEE7FEE796
:10024000FEE7FEE704480549054A064B70470000F3
:10025000851C0008890100081802002018080020E9
:10026000180400201804002053EA020C00F06980F2
:100270002DE9F04B4FF00006002B1FBFB3FA83F5BA
:1002800003FA05F424FA05F65E4012BF1643B2FAEB
:1002900082F502FA05F4C5F120051EBF22FA05FC1D
:1002A00044EA0C04203556EA044C4FEA144418BFC3
:1002B000641C4FF000084FF00009904271EB030CF2
:1002C00039D3002919BFB1FA81F701FA07F6B0FA5C
:1002D00080F700FA07F6C7F120071EBF20FA07FCD7
:1002E00046EA0C062037B6FBF4FCA7EB0507103FE7
:1002F00007F01F0BCBF120060CFA0BFB2CFA06F6CD
:1003000044BFB3460026202FA4BF5E464FF0000B2B
:100310005BEA060C08BF4FF0010B19EB0B09ABFBB6
:10032000027C48EB0608C01B06FB02CC0BFB03CC8F
:1003300071EB0C01C1E70B46024641464846BDE859
:10034000F08B13B54FF000004FF00001AFF30080C9
:10035000BDE81C407047032A40F2308010F0030CC7
:1003600000F0158011F8013BBCF1020F624498BF08
:1003700011F801CB00F8013B38BF11F8013BA2F1A5
:10038000040298BF00F801CB38BF00F8013B11F020
:10039000030300F04F80083AC0F0088051F8043B96
:1003A000083A51F804CBA0E80810F5E7121D5CBF2D
:1003B00051F8043B40F8043BAFF30080D20724BF60
:1003C00011F8013B11F801CB48BF11F8012B24BFF4
:1003D00000F8013B00F801CB48BF00F8012B704743
:1003E0004FF0000200B5134694469646203922BFCE
:1003F000A0E80C50A0E80C50B1F12001BFF4F7AF19
:10040000090728BFA0E80C5048BF0CC05DF804EBFA
:10041000890028BF40F8042B08BF704748BF20F868
:10042000022B11F0804F18BF00F8012B7047704766
:100430007047704710B5203AC0F00B80B1E81850F3
:10044000203AA0E81850B1E81850A0E81850BFF4BE
:10045000F5AF5FEA027C24BFB1E81850A0E818505D
:1004600044BF18C918C0BDE810405FEA827C24BFB1
:1004700051F8043B40F8043B08BF7047D20728BF3F
:1004800031F8023B48BF11F8012B28BF20F8023B8E
:1004900048BF00F8012B7047754600F02BF8AE46B8
:1004A00005006946534620F00700854618B020B580
:1004B000FFF7C8FEBDE820404FF000064FF00007F0
:1004C0004FF000084FF0000B21F00701AC46ACE8FC
:1004D000C009ACE8C009ACE8C009ACE8C0098D4669
:1004E000704710B50446AFF300802046BDE81040C9
:1004F000FFF793BE00487047B8010020014918205B
:10050000ABBEFEE7260002007047FEE7014800F0A0
:1005100036B9000024000020014800F030B9000086
:1005200024000020014800F02AB900004C000020FF
:10053000014800F024B900004C00002030B503460B
:1005400000200246044D03E09C5C6040521C285C85
:100550008A42F9DB30BD0000901F0008704772B678
:10056000FEE790F82020012A07D0022A05D0416A30
:1005700041F48021416201207047006842690A43CA
:10058000426100207047000010B590F82020012A39
:1005900007D0022A05D0416A41F48021416201203E
:1005A00010BD3B48D0F8002242F00102C0F8002202
:1005B000D0F8002222F47C52C0F80022D0F80022A9
:1005C0004B6A42EA0322C0F800220A7D02F01F03B0
:1005D00001229A40D0F81C329343C0F81C32CB69F8
:1005E000B3B9D0F80C329343C0F80C328C894B6805
:1005F00064F31F434C6900EBC404C4F840320C8917
:100600000B6864F31F434C6900EBC404C4F8443224
:10061000CB69012B16D1D0F80C321343C0F80C3241
:100620000C884B6864F31F434C6900EBC404C4F8A6
:1006300040320C89CB6864F31F434C6900EBC4045F
:10064000C4F844328B69002BD0F804320ED0134327
:10065000C0F804320B69002BD0F8143208D01343D1
:10066000C0F81432096A012904D008E09343EFE787
:100670009343F5E7D0F81C121143C0F81C12D0F8D0
:10068000001221F00101C0F80012002010BD00008E
:1006900000640040704730B590F82040012C05D030
:1006A000022C03D0416A41F480215DE004680029F6
:1006B00055D02469A40754D04FF4D874056804EBCE
:1006C00001142D5915F00405956005682D594ED07B
:1006D000ED08556005682C5904F00204D4604FF40D
:1006E000DA74056804EB01142D5905F00F05156146
:1006F00005682D59C5F30725956105682C59240C0B
:1007000054614FF4DC72046802EB0112A4581C70AF
:100710000468A458240A5C700468A458240C9C70D3
:100720000468A258120EDA704FF4DE72046802EB0D
:100730000112A4581C710468A458240A5C7104684E
:10074000A458240C9C710468A258120EDA71006837
:1007500081B1016941F020010161002030BDE468F0
:10076000A8E7416A41F400114162012030BD6D0DDE
:100770001560AFE7C16841F02001C160EDE72DE9E8
:10078000F05F0546006800244669D0F80490876849
:10079000D0F80CB0D0F810A0D0F81880F10748D0ED
:1007A000F90714D001218160B80703D5284600F06D
:1007B00022FB0CE0780702D54FF4006407E038070D
:1007C00002D54FF4805402E0284600F013FBF805F0
:1007D00016D529684FF480708860B80503D528467F
:1007E00000F00BFB0CE0780502D544F4005407E060
:1007F000380502D544F4804402E0284600F0FCFAB3
:10080000F80316D529684FF480308860B80303D503
:10081000284600F0F4FA0CE0780302D544F40044D2
:1008200007E0380302D544F4803402E0284600F0A3
:10083000E5FA300707D55FEACB6004D529681020B8
:1008400044F40074C86070074FF0080707D55FEAEA
:100850000B7004D52868C760284600F0A9F9B007D6
:1008600006D52868C068800702D0284600F0A2F9A3
:10087000700607D55FEACA6004D52968102044F4E1
:1008800080640861B00607D55FEA0A7004D528685D
:100890000761284600F07EFAF00606D52868006950
:1008A000800702D0284600F076FAB00308D55FEA48
:1008B000C96005D5296810204860284600F06CFA08
:1008C000F00307D55FEA097004D528684760284619
:1008D00000F096FA300446D55FEA497040D5F0053D
:1008E00004D55FEAC87001D044F00104B00504D516
:1008F0005FEA887001D544F00204700504D55FEA10
:10090000487001D544F00404300529D518F0700F63
:1009100026D008F07000402815D006DC102809D039
:1009200020280AD0302816D10AE050280ED060289E
:1009300011D10EE044F008040DE044F010040AE088
:1009400044F0200407E044F0400404E044F0800454
:1009500001E044F480742868816921F070018161AC
:10096000296804204860002C05D0686A204368622A
:100970002846FFF78FFEBDE8F09F70B5040003D056
:1009800094F8200010B104E0012070BD204600F072
:1009900081F82068016841F00101016000F096FBD8
:1009A0000546052604E000F091FB401B0A2811D8FB
:1009B00020684068C007F6D02068016821F0020175
:1009C000016000F083FB05460BE000F07FFB401B5D
:1009D0000A2806D9606A40F40030606284F820601A
:1009E000D2E7206840688007EFD4207E0128206885
:1009F00001683DD021F080010160607E01282068FF
:100A0000016838D021F040010160A07E01282068F3
:100A1000016833D021F020010160E07E01282068C8
:100A200001682ED041F010010160207F012820686C
:100A3000016829D021F008010160607F0128206849
:100A4000016824D021F004010160D4E902010843C7
:100A5000D4E90412114308436168491E0843216820
:100A6000C86100206062012084F82000002070BD71
:100A700041F08001C0E741F04001C5E741F02001AD
:100A8000CAE721F01001CFE741F00801D4E741F0B7
:100A90000401D9E7F0B587B0044614216846FFF792
:100AA0009FFC3E4B3E48DFF8F0E01968D4F800C0E8
:100AB0003B4A03250226092710300024491CF4452F
:100AC0002AD11960012907D1016841F00071016044
:100AD000006800F000700590106840F00800106099
:100AE0001068CDE9005600F00800CDE904706946B1
:100AF0002C48CDE9024500F0F1F9002211461420FE
:100B000000F052FB142000F041FB0022114615209A
:100B100000F04AFB15203AE0DFF88CE0F44538D1CC
:100B2000D0F800C04CF0806CC0F800C0D0F800C015
:100B300001290CF0806CCDF814C0196007D1016850
:100B400041F000710160006800F0007005901068CD
:100B500040F002001060106802AB00F00200059047
:100B60006020CDE9000683E8B00069460F4800F038
:100B7000B5F900221146402000F016FB402000F09D
:100B800005FB00221146412000F00EFB412000F041
:100B9000FDFA07B0F0BD0000006400400000002036
:100BA00030380240000C024000680040000402405F
:100BB00070470000F0B5DBB0744B54AA0021FFF77A
:100BC0006AFD724DEC1F2878FC2823D1E078FD28BF
:100BD00020D10026A67068782070A8786070042163
:100BE000E01DFFF7ABFC2979814204D0A078401CBE
:100BF000A0705BB0F0BD60784FF0010210F007010B
:100C0000617102EBD000207101D0401C2071A671EF
:100C1000E879E070A678002EEBD194F804E0A07992
:100C2000AEF101015A4A88424BD0002102EBC003C9
:100C30006E5C5E54491C0829FADB401CA071C0B2EE
:100C40007045D6D120785249393838316C28D0D205
:100C5000DFE800F05D3636363636365F7599363663
:100C6000363636363636363636363664366D3636BF
:100C7000363693756636686B976D3636369336938F
:100C80007336368F9197933636976F363636713680
:100C900036737577953697367936367B7D36873657
:100CA0007F363687368F3636363636979799993669
:100CB00036363636363636363636368D36898B8D7E
:100CC00097E763794FF0000113B102EBC0070EE024
:100CD00002EBC0036F5C5F54491C0829FADBE97919
:100CE0000CE000BF15F801C007F801C0491C9C4684
:100CF0009942F7DB05EB0C0111F8011CE170C9B258
:100D0000FD2901D0FD21E170761CA67095E72E2209
:100D100000E038226846FFF71EFB6AE76622F9E723
:100D20004A22F7E74FF4A872F4E72022F2E70E22F6
:100D3000F0E71422EEE7FF22ECE72422EAE7302274
:100D4000E8E78622E6E71B22E4E74922E2E71522EC
:100D5000E0E7108FADF8000092F83A008DF802003D
:100D600047E73122D6E72122D4E74122D2E71122F8
:100D7000D0E74022CEE72822CCE71022CAE71C2287
:100D8000C8E71822C6E74822C4E700001B0000207D
:100D9000B8000020704770477047000070B50446E7
:100DA00090F82000012804D0606A40F400206062BE
:100DB00018E0022084F820002068016821F0010179
:100DC000016000F083F905460EE000BF00F07EF9F7
:100DD000401B0A2808D9606A40F400306062052090
:100DE00084F82000012070BD20684068C007EDD164
:100DF000606270BD704770477047704770477047BA
:100E000070472DE9F0410446876D00F05FF9064612
:100E100094F835000025022806D08020606584F80B
:100E200034500120BDE8F0812068016821F01601EE
:100E300001602068416921F080014161206C08B99E
:100E4000A06C20B12068016821F0080101602068D1
:100E5000016821F0010101600CE000F037F9801B0E
:100E6000052807D920206065032084F8350084F820
:100E70003450D7E720680068C007EED194F85C10C2
:100E80003F208840B860012084F8350084F8345051
:100E90000020C7E790F83510022903D08021416572
:100EA00001207047052180F835100068016821F0A5
:100EB000010101600020704770B5044600F006F99A
:100EC0000546601C02D004480078044400F0FEF897
:100ED000401BA042FAD370BD040000202DE9F84F5A
:100EE000DFF8BCA10022012503264FF00F090AF10B
:100EF000040BAAF1040E00BF0B6805FA02F42340AC
:100F0000A34270D10F7907F00307012F01D0022F00
:100F100016D187684FEA420806FA08FC27EA0C0750
:100F2000D1F80CC00CFA08FC4CEA070CC0F808C059
:100F30004768A7430C79C4F3001494403C434460D1
:100F40000C79E443A4070AD0C4684FEA420C06FABD
:100F50000CF7BC438F6807FA0CF72743C7600C797E
:100F600004F00304022C12D1D40800EB840CDCF84A
:100F700020405707FF0E09FA07F824EA0804D1F8C1
:100F8000108008FA07F848EA0408CCF820800468C2
:100F90004FEA420C06FA0CF7BC430F7907F003073F
:100FA00007FA0CF7274307604C6814F4403F70D0F1
:100FB0003C4C276847F480472760246822F00307E9
:100FC00004F480440094384C07EB040CDCF8084827
:100FD00097074FEA177809FA08F7BC43334FB8422E
:100FE00002D1002724E054E0314FB84201D101275B
:100FF0001EE0304FB84201D1022719E02E4FB8420F
:1010000001D1032714E02D4FB84201D104270FE08E
:101010002B4FB84201D105270AE02A4FB84201D12F
:10102000062705E0284FB84201D1072700E008272E
:1010300007FA08F72743CCF80878DAF80040574653
:10104000D1F804C09C435FEACC2C00D51C433C6023
:10105000DBF800405F46D1F804C09C435FEA8C2C6B
:1010600000D51C433C60DEF800407746D1F804C050
:101070009C435FEA8C3C00D51C433C60084F083F12
:101080003C68D1F804C09C435FEACC3C00D51C43CB
:101090003C60521C102AFFF42FAFBDE8F88F00000F
:1010A000083C01404438024000300140000002404A
:1010B0000004024000080240000C02400010024000
:1010C0000014024000180240001C024001488068E1
:1010D0007047000004000020024881680278114433
:1010E00081607047040000200B4810B5016841F48E
:1010F00000710160016841F480610160016841F4A0
:1011000080710160032000F06FF80F2000F006F8F6
:1011100000F024F8002010BD003C024070B50D4DD9
:1011200004464FF47A712878B1FBF0F00A49096857
:10113000B1FBF0F000F000FB48B9102C07D2002200
:101140002146501E00F030F800206C6070BD012078
:1011500070BD000004000020100000200A4808B5FF
:10116000016841F480410160006800F48040009013
:101170000548001F016841F080510160006800F0DF
:101180008050009008BD000044380240002809DB70
:1011900000F01F02012191404009800000F1E02091
:1011A000C0F8001170470000F0B40E4B1B680C46ED
:1011B000C3F30223C3F10705042D00D90425191D2B
:1011C000072901D2002300E0DB1E012606FA05F103
:1011D000491E214099409E40761E16403143F0BC86
:1011E00000F075BE0CED00E0064900F0070208684B
:1011F0004FF6FF03184040EA0220034A10430860FC
:10120000704700000CED00E00000FA052DE9F04702
:101210000E46050065D0DFF81481D8F80000F7B25B
:1012200000F00700B04207D288F80070D8F800003C
:1012300000F00700B04254D128683D4C810712D518
:10124000400703D5206840F4E0502060287800076C
:1012500003D5206840F4604020602068A96820F031
:10126000F000084320602878C0072DD03049686816
:101270000839012812D0022813D0032811D0096898
:10128000890700292DDA216821F00301014321603B
:10129000FFF71CFF814641F2883A0EE00968890396
:1012A000EFE709688901ECE7FFF710FFA0EB090100
:1012B000514502D90320BDE8F0872068696800F035
:1012C0000C00B0EB810FEFD1D8F80010404601F0D0
:1012D0000701B14207D90770006800F00700B0426B
:1012E00001D00120E7E72878400705D52068E968A4
:1012F00020F4E050084320602878000706D52068D5
:10130000296920F4604040EAC100206000F038F80C
:101310002168084AC1F30311515CC84006490860BE
:1013200006480068FFF7FAFE0020C4E7003C0240D0
:1013300008380240761F0008100000200800002036
:101340000448054900680968044AC1F38221515CD8
:10135000C84070471000002008380240861F00086F
:101360000448054900680968044AC1F34231515CE8
:10137000C84070471000002008380240861F00084F
:10138000104810B5006810F00C010F4818D004295F
:1013900016D0082914D10B4C241F216801F03F02FC
:1013A000216821680023C1F38811A1FB0001FEF729
:1013B0005BFF2168C1F30141491C4900B0FBF1F01A
:1013C00010BD0000083802400024F4002DE9F84F59
:1013D00004006ED02078DFF84C93C007A9F1040513
:1013E0004AD009F104000168C1F38101012908D044
:1013F0000068C0F3810002280AD1D9F80000400239
:1014000006D52868800337D560680028E1D033E02E
:101410006068B0F5803F10D0B0F5A02F286810D0DC
:1014200020F480302860286820F4802028606068DC
:10143000A8B1FFF74BFE06460DE0286840F4803067
:10144000F4E740F480202860F7E700BFFFF73EFE96
:10145000801B642873D828688003F7D50CE0FFF759
:1014600035FE064605E000BFFFF730FE801B64280E
:10147000F0D828688003F7D42078DFF8AC828007A2
:101480004FF0000A3ED5A748001D016811F00C0F6F
:1014900008D00068C0F3810002280BD1D9F8000001
:1014A000400207D42868800716D5E068012800D1DB
:1014B00012E033E1E068B8B10120C8F80000FFF79E
:1014C00005FE064605E000BFFFF700FE801B022870
:1014D000C0D828688007F7D52868216920F0F8006F
:1014E00040EAC10028600DE0C8F800A0FFF7EEFD5B
:1014F000064604E0FFF7EAFD801B02281FD8286893
:101500008007F7D42078000722D5864F8748616985
:10151000703771B101210160FFF7D8FD064604E084
:10152000FFF7D4FD801B022809D838688007F7D55B
:101530000EE0C0F800A0FFF7C9FD064605E082E016
:10154000FFF7C4FD801B02287DD838688007F7D4D8
:101550002078400768D5DFF8CCB100270BF13C0BB1
:10156000DBF80000C0000BD4DBF8001041F0805124
:10157000CBF80010DBF80000012700F0805000904D
:101580006B4E3068C00510D4306840F48070306015
:10159000FFF79CFD009005E0FFF798FD0099401AC9
:1015A000022850D83068C005F6D55E4EA0686C366B
:1015B00001280FD00528306810D020F001003060DD
:1015C000306820F004003060A068B8B1FFF77EFDFD
:1015D00000900FE0306840F00100F4E740F00400B4
:1015E0003060F7E7FFF772FD0099411A41F2883049
:1015F000814266D830688007F4D50EE0FFF766FDBB
:10160000009007E0FFF762FD0099411A41F288302F
:10161000814256D830688007F4D42FB1DBF800102F
:1016200021F08051CBF80010A069C8B33D49091DD5
:101630000968C1F3810102294AD00228504607D027
:10164000C8F8600000E03CE0FFF740FD04463BE0E6
:101650004746C8F86000FFF739FD064605E000BFC1
:10166000FFF734FD801B02282BD828688001F7D4AF
:10167000D4E907010843A16A2E4A490802EB014157
:10168000626A41EA8211084394F82C1040EA016131
:10169000C9F8001001203866FFF718FD044606E07F
:1016A0003EE000BFFFF712FD001B022809D82868A2
:1016B0008001F7D534E000BFFFF708FD001B0228CA
:1016C00002D90320BDE8F88F28688001F4D427E010
:1016D0000128F7D0D9F80000E26900F480019142B6
:1016E0001CD1226A00F03F01914217D147F6C07128
:1016F000626A0140B1EB821F10D1A26A4FF0FF3342
:1017000000F4403103EB5202B1EB024F06D194F8E2
:101710002C1000F07060B0EB016F01D00120D1E718
:101720000020CFE70438024000004742800E4742C5
:10173000007000400000FFFF10B5401EB0F1807F38
:1017400001D3012010BD4FF0E02460610F2160172C
:1017500000F0BDFB0020A06107202061002010BD2B
:1017600070477047F8B5016804460868CA684B6955
:1017700010F00F0F4FF0000559D003F0010602F4EE
:101780009077374365D0C10705D0D10503D5216CCB
:1017900041F001012164410705D5D90703D0216C2F
:1017A00041F002012164810705D5D90703D0216CDE
:1017B00041F004012164010707D502F02001314303
:1017C00003D0216C41F008012164216C00293AD03A
:1017D000800604D5900602D5204600F08AFA2068DB
:1017E0004069216CC0F38010090700D460B3204623
:1017F00000F058FA20684069400621D5206814306E
:1018000050E8001F21F0400140E80012002AF5D105
:10181000A06BA8B16C490165A06BFFF73BFB0028EA
:1018200011D0A06B016D01B0BDE8F0400847830600
:101830000FD593060DD52046BDE8F84000F059BA03
:101840002046FFF78EFFF8BD2046FFF78AFF25648C
:10185000F8BD266B2023012E79D1C60677D5D60692
:1018600075D50868486800904869400640D5A16B66
:10187000086840680004000CEAD0A28D8242E7D9D3
:10188000E085C869B0F5807F2DD020680C3050E825
:10189000001F21F4807140E80012002AF5D1206871
:1018A000143050E8001F21F0010140E80012002A26
:1018B000F5D12068143050E8001F21F0400140E8C5
:1018C0000012002AF5D184F83E30256320680C30E0
:1018D00050E8001F21F0100140E80012002AF5D165
:1018E000A06BFFF78EFAA08DE18D401A81B229E03E
:1018F000A08DE18D401A81B2E08D0028A8D000298A
:10190000A6D020680C3050E8002F22F4907240E8F6
:101910000026002EF5D12068143050E8002F22F068
:10192000010240E80026002EF5D184F83E30256300
:1019300020680C3050E8002F22F0100240E800230D
:10194000002BF5D12046FFF70BFFF8BDFFE705069A
:101950002BD5150629D594F83D002128F5D1A0688E
:10196000B0F5805F01D12069B0B1206A411C2162CD
:10197000216800784860E08C401E0004000CE08480
:10198000E3D12068C16821F08001C1602068C1688E
:1019900041F04001C160D8E7206A0088C0F3080028
:1019A0004860206A801C2062E5E74006CDD55006DD
:1019B000CBD5CA68204622F04002CA6084F83D3088
:1019C00000F087F8C1E70000951C000870B504001E
:1019D00004D094F83D00002510B106E0012070BD50
:1019E00084F83C50204600F023F8242084F83D0081
:1019F0002068C16821F40051C160204600F0DAF986
:101A00002068016921F4904101612068416921F059
:101A10002A0141612068C16841F40051C160256418
:101A2000202084F83D0084F83E00002070BD0000B6
:101A3000F0B587B0044614216846FEF7D1FC204972
:101A4000206888423AD11F480024016841F0100103
:101A50000160006800F0100005901A481438016811
:101A600041F002010160016801F002010591016885
:101A700041F0010101600068022500F001000590BD
:101A80008020CDE9000502AA0326072782E8D000BE
:101A900069460D48FFF722FA2802CDE9000502AA9F
:101AA000694682E8D0000948FFF718FA002211467B
:101AB0002520FFF779FB2520FFF768FB07B0F0BD75
:101AC000001001404438024000040240000002407F
:101AD00070477047FEE700000F4810B50D490160E0
:101AE0000321416000214FF410228160C0E90312FC
:101AF0004FF400124261017641768176C17601771A
:101B00004177FEF73AFF002803D0BDE81040FEF70A
:101B100026BD10BD00640040240000200F4810B511
:101B20000D4901600321416000214FF410228160C2
:101B3000C0E903124FF400124261017641768176CA
:101B4000C17601774177FEF718FF002803D0BDE882
:101B50001040FEF704BD10BD006800404C0000209E
:101B6000114808B5016841F002010160016801F007
:101B700002010091016841F001010160016801F07A
:101B800001010091016841F008010160016801F064
:101B900008010091016841F080010160006800F0D7
:101BA0008000009008BD0000303802400C4810B59D
:101BB0000A4901604FF4E1314160002181600C224B
:101BC000C160C0E904128161C161FFF7FFFE002816
:101BD00003D0BDE81040FEF7C2BC10BD00100140AC
:101BE00074000020FEE7FEE770477047FFF774BA05
:101BF00030B593B030216846FEF7F2FB14210CA8F3
:101C0000FEF7EEFB1D480025016841F080510160A0
:101C1000006800F0805011901948016841F480413B
:101C200001600068022400F48040119001200390BC
:101C300010200490009406940820CDE90750A820B5
:101C4000CDE9090404200B906846FFF7BFFB08B1FB
:101C500072B6FEE70CA90F2081E831004FF4A050C6
:101C60000F904FF48050109005210CA8FFF7CEFA8A
:101C7000002801D072B6FEE713B030BD40380240F4
:101C8000007000400248016841F470010160704733
:101C900088ED00E010B5806B0021C185C184FFF79D
:101CA00060FD10BD01680C3151E8002F22F49072E4
:101CB00041E80023002BF5D10168143151E8002FD1
:101CC00022F0010241E80023002BF5D1016B01292C
:101CD00009D101680C3151E8002F22F0100241E8CF
:101CE0000023002BF5D1202180F83E100021016354
:101CF000704708B590F83E10222901D0022008BD97
:101D000082684FF480539A4201D1016921B1816AFE
:101D10009A421BD04AB10AE00268816A5268C2F353
:101D200008020A80816A891C08E0026972B10268AF
:101D3000526802F07F020A70816A491C8162C18D7B
:101D4000491E0904090CC18503D019E002685268D4
:101D5000F1E70168CA6822F02002CA600168CA6817
:101D600022F48072CA6001684A6922F001024A6165
:101D7000202180F83E10016B012903D0FFF7A8FE57
:101D8000002008BD0021016301680C3151E8002FDB
:101D900022F0100241E80023002BF5D101680A6807
:101DA000D20602D50A6849680091818DFFF7D8FCF8
:101DB000E6E7000070B5044600680169E26821F4B6
:101DC0004051114301612169A068E26908436169DA
:101DD000114308432168CA6849F20C639A430243DD
:101DE000CA6020684169A26921F4407111434161D0
:101DF00031492068884202D03049884202D1FFF739
:101E0000AFFA01E0FFF79CFAE2690023192164258B
:101E10003226B2F5004F626828D0A0FB0101930F73
:101E20009200FEF721FA0146B0FBF5F06FF01802C0
:101E3000504301EB800006EB0010B0FBF5F000F022
:101E4000F002B1FBF5F002EB0012B1FBF5F06FF020
:101E50001803584301EB800006EB0010B0FBF5F0CF
:101E600000F00F0021681044886070BDA0FB0101E4
:101E700092185B41FEF7F8F90146B0FBF5F002015C
:101E8000B1FBF5F06FF01803584301EB800006EB4F
:101E9000C000B0FBF5F000F0F80002EB4002B1FB2F
:101EA000F5F0584301EB800006EBC000B0FBF5F005
:101EB00000F00700D6E700000010014000140140C8
:101EC0000148FFF74FBC000074000020FEE709073F
:101ED000090E002804DB00F1E02080F800147047B0
:101EE00000F00F0000F1E02080F8141D70470000A2
:101EF00000B58BB000200121CDE9060108910090CA
:101F00000190029003900590049069460C48FEF7FA
:101F10003BFB0B48FEF742FF02210948FEF721FB7D
:101F20000E200990059069460648FEF72DFB0548EE
:101F3000FEF734FF02210348FEF713FB0BB000BD90
:101F4000240000204C000020FFF7CEF8FFF750FEE1
:101F5000FFF706FEFFF7C0FDFFF7E0FDFFF726FEE7
:101F6000FFF7C6FF6420FEF7A7FFFBE74FF04070C6
:101F7000E1EE100A704700000000000000000102BE
:101F80000304060708090000000001020304000022
:101F9000005EBCE2613FDD83C29C7E20A3FD1F4149
:101FA0009DC3217FFCA2401E5F01E3BD3E6082DC39
:101FB000237D9FC1421CFEA0E1BF5D0380DE3C6229
:101FC000BEE0025CDF81633D7C22C09E1D43A1FF19
:101FD0004618FAA427799BC584DA3866E5BB590709
:101FE000DB856739BAE406581947A5FB7826C49AF9
:101FF000653BD987045AB8E6A7F91B45C6987A24E9
:10200000F8A6441A99C7257B3A6486D85B05E7B9D8
:102010008CD2306EEDB3510F4E10F2AC2F7193CDC8
:10202000114FADF3702ECC92D38D6F31B2EC0E50B8
:10203000AFF1134DCE90722C6D33D18F0C52B0EEA8
:10204000326C8ED0530DEFB1F0AE4C1291CF2D7398
:10205000CA947628ABF517490856B4EA6937D58B88
:102060005709EBB536688AD495CB2977F4AA481678
:10207000E9B7550B88D6346A2B7597C94A14F6A868
:10208000742AC896154BA9F7B6E80A54D7896B3558
:1020900000002110422063308440A550C660E770E4
:1020A000088129914AA16BB18CC1ADD1CEE1EFF18C
:1020B0003112100273325222B5529442F772D66234
:1020C000399318837BB35AA3BDD39CC3FFF3DEE3DC
:1020D0006224433420040114E664C774A444855484
:1020E0006AA54BB528850995EEE5CFF5ACC58DD52C
:1020F0005336722611163006D776F6669556B446D4
:102100005BB77AA719973887DFF7FEE79DD7BCC77B
:10211000C448E5588668A778400861180228233823
:10212000CCC9EDD98EE9AFF9488969990AA92BB9CB
:10213000F55AD44AB77A966A711A500A333A122A73
:10214000FDDBDCCBBFFB9EEB799B588B3BBB1AAB1B
:10215000A66C877CE44CC55C222C033C600C411CC3
:10216000AEED8FFDECCDCDDD2AAD0BBD688D499D6B
:10217000977EB66ED55EF44E133E322E511E700E13
:102180009FFFBEEFDDDFFCCF1BBF3AAF599F788FBB
:102190008891A981CAB1EBA10CD12DC14EF16FE19B
:1021A0008010A100C230E3200450254046706760D3
:1021B000B9839893FBA3DAB33DC31CD37FE35EF3EB
:1021C000B1029012F322D232354214527762567223
:1021D000EAB5CBA5A89589856EF54FE52CD50DC53B
:1021E000E234C324A0148104667447642454054473
:1021F000DBA7FAB79987B8975FE77EF71DC73CD78B
:10220000D326F2369106B0165766767615463456C2
:102210004CD96DC90EF92FE9C899E9898AB9ABA9DA
:102220004458654806782768C018E1088238A32812
:102230007DCB5CDB3FEB1EFBF98BD89BBBAB9ABB2A
:10224000754A545A376A167AF10AD01AB32A923A62
:102250002EFD0FED6CDD4DCDAABD8BADE89DC98D7A
:10226000267C076C645C454CA23C832CE01CC10CB2
:102270001FEF3EFF5DCF7CDF9BAFBABFD98FF89FCA
:10228000176E367E554E745E932EB23ED10EF01E02
:1022900000000000963007772C610EEEBA510999C4
:1022A00019C46D078FF46A7035A563E9A395649E20
:1022B0003288DB0EA4B8DC791EE9D5E088D9D29744
:1022C0002B4CB609BD7CB17E072DB8E7911DBF90A0
:1022D0006410B71DF220B06A4871B9F3DE41BE84C4
:1022E0007DD4DA1AEBE4DD6D51B5D4F4C785D38320
:1022F00056986C13C0A86B647AF962FDECC9658AC4
:102300004F5C0114D96C0663633D0FFAF50D088D1F
:10231000C8206E3B5E10694CE44160D5727167A2C3
:10232000D1E4033C47D4044BFD850DD26BB50AA51F
:10233000FAA8B5356C98B242D6C9BBDB40F9BCAC43
:10234000E36CD832755CDF45CF0DD6DC593DD1AB9F
:10235000AC30D9263A00DE518051D7C81661D0BFC3
:10236000B5F4B42123C4B3569995BACF0FA5BDB81F
:102370009EB802280888055FB2D90CC624E90BB1C3
:10238000877C6F2F114C6858AB1D61C13D2D66B61F
:102390009041DC760671DB01BC20D2982A10D5EF83
:1023A0008985B1711FB5B606A5E4BF9F33D4B8E8DF
:1023B000A2C9077834F9000F8EA8099618980EE183
:1023C000BB0D6A7F2D3D6D08976C6491015C63E6DF
:1023D000F4516B6B62616C1CD83065854E0062F203
:1023E000ED95066C7BA5011BC1F4088257C40FF55F
:1023F000C6D9B06550E9B712EAB8BE8B7C88B9FC83
:10240000DF1DDD62492DDA15F37CD38C654CD4FBDE
:102410005861B24DCE51B53A7400BCA3E230BBD482
:1024200041A5DF4AD795D83D6DC4D1A4FBF4D6D3DE
:102430006AE96943FCD96E34468867ADD0B860DA82
:10244000732D0444E51D03335F4C0AAAC97C0DDDDE
:102450003C710550AA41022710100BBE86200CC902
:1024600025B56857B3856F2009D466B99FE461CE5E
:102470000EF9DE5E98C9D9292298D0B0B4A8D7C782
:10248000173DB359810DB42E3B5CBDB7AD6CBAC0DE
:102490002083B8EDB6B3BF9A0CE2B6039AD2B174FA
:1024A0003947D5EAAF77D29D1526DB048316DC7356
:1024B000120B63E3843B64943E6A6D0DA85A6A7AFA
:1024C0000BCF0EE49DFF099327AE000AB19E077D56
:1024D00044930FF0D2A3088768F2011EFEC206697A
:1024E0005D5762F7CB67658071366C19E7066B6ED6
:1024F000761BD4FEE02BD3895A7ADA10CC4ADD67FA
:102500006FDFB9F9F9EFBE8E43BEB717D58EB06055
:10251000E8A3D6D67E93D1A1C4C2D83852F2DF4FF9
:10252000F167BBD16757BCA6DD06B53F4B36B24855
:10253000DA2B0DD84C1B0AAFF64A0336607A0441F9
:10254000C3EF60DF55DF67A8EF8E6E3179BE694655
:102550008CB361CB1A8366BCA0D26F2536E2685279
:1025600095770CCC03470BBBB91602222F260555D5
:10257000BE3BBAC5280BBDB2925AB42B046AB35CF9
:10258000A7FFD7C231CFD0B58B9ED92C1DAEDE5B55
:10259000B0C2649B26F263EC9CA36A750A936D0239
:1025A000A906099C3F360EEB856707721357000595
:1025B000824ABF95147AB8E2AE2BB17B381BB60CB9
:1025C0009B8ED2920DBED5E5B7EFDC7C21DFDB0B15
:1025D000D4D2D38642E2D4F1F8B3DD686E83DA1F39
:1025E000CD16BE815B26B9F6E177B06F7747B71895
:1025F000E65A0888706A0FFFCA3B06665C0B011139
:10260000FF9E658F69AE62F8D3FF6B6145CF6C1694
:1026100078E20AA0EED20DD75483044EC2B3033938
:10262000612667A7F71660D04D476949DB776E3E94
:102630004A6AD1AEDC5AD6D9660BDF40F03BD837B8
:1026400053AEBCA9C59EBBDE7FCFB247E9FFB53014
:102650001CF2BDBD8AC2BACA3093B353A6A3B42438
:102660000536D0BA9306D7CD2957DE54BF67D92394
:102670002E7A66B3B84A61C4021B685D942B6F2A38
:1026800037BE0BB4A18E0CC31BDF055A8DEF022D94
:10269000B02600080000002024000000C40100084B
:1026A000D426000824000020F4070000E001000800
:1026B0000000000001000000100000000000000009
:1026C0000024F400000000FD0000000000000000F5
:0426D0000000000006
:040000050800018965
:00000001FF
